{
  "_format": "hh-sol-artifact-1",
  "contractName": "exa",
  "sourceName": "contracts/exa.sol",
  "abi": [
    {
      "inputs": [],
      "name": "show",
      "outputs": [
        {
          "internalType": "uint256",
          "name": "",
          "type": "uint256"
        }
      ],
      "stateMutability": "view",
      "type": "function"
    }
  ],
  "bytecode": "0x608060405234801561001057600080fd5b506101c4806100206000396000f3fe608060405234801561001057600080fd5b506004361061002b5760003560e01c8063cc80f6f314610030575b600080fd5b61003861004e565b6040516100459190610173565b60405180910390f35b60008080600101905061006081610098565b61007d73ffffffffffffffffffffffffffffffffffffffff610098565b73ffffffffffffffffffffffffffffffffffffffff91505090565b61012e816040516024016100ac9190610173565b6040516020818303038152906040527ff5b1bba9000000000000000000000000000000000000000000000000000000007bffffffffffffffffffffffffffffffffffffffffffffffffffffffff19166020820180517bffffffffffffffffffffffffffffffffffffffffffffffffffffffff8381831617835250505050610131565b50565b60008151905060006a636f6e736f6c652e6c6f679050602083016000808483855afa5050505050565b6000819050919050565b61016d8161015a565b82525050565b60006020820190506101886000830184610164565b9291505056fea264697066735822122053bec850520526f7adc5faddc86134db9c510070d89004bc0b947775b8de896d64736f6c63430008090033",
  "linkReferences": {},
  "deployedLinkReferences": {}
}