{
  "_format": "hh-sol-artifact-1",
  "contractName": "CustomERC721A1",
  "sourceName": "contracts/CustomERC721A.sol",
  "abi": [
    {
      "inputs": [],
      "name": "ApprovalCallerNotOwnerNorApproved",
      "type": "error"
    },
    {
      "inputs": [],
      "name": "ApprovalQueryForNonexistentToken",
      "type": "error"
    },
    {
      "inputs": [],
      "name": "ApproveToCaller",
      "type": "error"
    },
    {
      "inputs": [],
      "name": "BalanceQueryForZeroAddress",
      "type": "error"
    },
    {
      "inputs": [],
      "name": "CollectionSizeZero",
      "type": "error"
    },
    {
      "inputs": [],
      "name": "ExceedsMaximumBatchSize",
      "type": "error"
    },
    {
      "inputs": [],
      "name": "MaximumBatchSizeZero",
      "type": "error"
    },
    {
      "inputs": [],
      "name": "MintERC2309QuantityExceedsLimit",
      "type": "error"
    },
    {
      "inputs": [],
      "name": "MintToZeroAddress",
      "type": "error"
    },
    {
      "inputs": [],
      "name": "MintZeroQuantity",
      "type": "error"
    },
    {
      "inputs": [],
      "name": "OwnerQueryForNonexistentToken",
      "type": "error"
    },
    {
      "inputs": [],
      "name": "OwnershipNotInitializedForExtraData",
      "type": "error"
    },
    {
      "inputs": [],
      "name": "TransferCallerNotOwnerNorApproved",
      "type": "error"
    },
    {
      "inputs": [],
      "name": "TransferFromIncorrectOwner",
      "type": "error"
    },
    {
      "inputs": [],
      "name": "TransferToNonERC721ReceiverImplementer",
      "type": "error"
    },
    {
      "inputs": [],
      "name": "TransferToZeroAddress",
      "type": "error"
    },
    {
      "inputs": [],
      "name": "URIQueryForNonexistentToken",
      "type": "error"
    },
    {
      "anonymous": false,
      "inputs": [
        {
          "indexed": true,
          "internalType": "address",
          "name": "owner",
          "type": "address"
        },
        {
          "indexed": true,
          "internalType": "address",
          "name": "approved",
          "type": "address"
        },
        {
          "indexed": true,
          "internalType": "uint256",
          "name": "tokenId",
          "type": "uint256"
        }
      ],
      "name": "Approval",
      "type": "event"
    },
    {
      "anonymous": false,
      "inputs": [
        {
          "indexed": true,
          "internalType": "address",
          "name": "owner",
          "type": "address"
        },
        {
          "indexed": true,
          "internalType": "address",
          "name": "operator",
          "type": "address"
        },
        {
          "indexed": false,
          "internalType": "bool",
          "name": "approved",
          "type": "bool"
        }
      ],
      "name": "ApprovalForAll",
      "type": "event"
    },
    {
      "anonymous": false,
      "inputs": [
        {
          "indexed": true,
          "internalType": "uint256",
          "name": "fromTokenId",
          "type": "uint256"
        },
        {
          "indexed": false,
          "internalType": "uint256",
          "name": "toTokenId",
          "type": "uint256"
        },
        {
          "indexed": true,
          "internalType": "address",
          "name": "from",
          "type": "address"
        },
        {
          "indexed": true,
          "internalType": "address",
          "name": "to",
          "type": "address"
        }
      ],
      "name": "ConsecutiveTransfer",
      "type": "event"
    },
    {
      "anonymous": false,
      "inputs": [
        {
          "indexed": false,
          "internalType": "uint8",
          "name": "version",
          "type": "uint8"
        }
      ],
      "name": "Initialized",
      "type": "event"
    },
    {
      "anonymous": false,
      "inputs": [
        {
          "indexed": true,
          "internalType": "address",
          "name": "previousOwner",
          "type": "address"
        },
        {
          "indexed": true,
          "internalType": "address",
          "name": "newOwner",
          "type": "address"
        }
      ],
      "name": "OwnershipTransferred",
      "type": "event"
    },
    {
      "anonymous": false,
      "inputs": [
        {
          "indexed": true,
          "internalType": "address",
          "name": "from",
          "type": "address"
        },
        {
          "indexed": true,
          "internalType": "address",
          "name": "to",
          "type": "address"
        },
        {
          "indexed": true,
          "internalType": "uint256",
          "name": "tokenId",
          "type": "uint256"
        }
      ],
      "name": "Transfer",
      "type": "event"
    },
    {
      "inputs": [
        {
          "internalType": "bool",
          "name": "status",
          "type": "bool"
        }
      ],
      "name": "activePreSale",
      "outputs": [],
      "stateMutability": "nonpayable",
      "type": "function"
    },
    {
      "inputs": [
        {
          "internalType": "bool",
          "name": "status",
          "type": "bool"
        }
      ],
      "name": "activePublicSale",
      "outputs": [],
      "stateMutability": "nonpayable",
      "type": "function"
    },
    {
      "inputs": [
        {
          "internalType": "address",
          "name": "to",
          "type": "address"
        },
        {
          "internalType": "uint256",
          "name": "tokenId",
          "type": "uint256"
        }
      ],
      "name": "approve",
      "outputs": [],
      "stateMutability": "nonpayable",
      "type": "function"
    },
    {
      "inputs": [
        {
          "internalType": "address",
          "name": "owner",
          "type": "address"
        }
      ],
      "name": "balanceOf",
      "outputs": [
        {
          "internalType": "uint256",
          "name": "",
          "type": "uint256"
        }
      ],
      "stateMutability": "view",
      "type": "function"
    },
    {
      "inputs": [
        {
          "internalType": "uint256",
          "name": "tokenId",
          "type": "uint256"
        }
      ],
      "name": "getApproved",
      "outputs": [
        {
          "internalType": "address",
          "name": "",
          "type": "address"
        }
      ],
      "stateMutability": "view",
      "type": "function"
    },
    {
      "inputs": [],
      "name": "getProfits",
      "outputs": [],
      "stateMutability": "nonpayable",
      "type": "function"
    },
    {
      "inputs": [],
      "name": "initialize",
      "outputs": [],
      "stateMutability": "nonpayable",
      "type": "function"
    },
    {
      "inputs": [
        {
          "internalType": "address",
          "name": "owner",
          "type": "address"
        },
        {
          "internalType": "address",
          "name": "operator",
          "type": "address"
        }
      ],
      "name": "isApprovedForAll",
      "outputs": [
        {
          "internalType": "bool",
          "name": "",
          "type": "bool"
        }
      ],
      "stateMutability": "view",
      "type": "function"
    },
    {
      "inputs": [],
      "name": "name",
      "outputs": [
        {
          "internalType": "string",
          "name": "",
          "type": "string"
        }
      ],
      "stateMutability": "view",
      "type": "function"
    },
    {
      "inputs": [],
      "name": "owner",
      "outputs": [
        {
          "internalType": "address",
          "name": "",
          "type": "address"
        }
      ],
      "stateMutability": "view",
      "type": "function"
    },
    {
      "inputs": [
        {
          "internalType": "uint256",
          "name": "tokenId",
          "type": "uint256"
        }
      ],
      "name": "ownerOf",
      "outputs": [
        {
          "internalType": "address",
          "name": "",
          "type": "address"
        }
      ],
      "stateMutability": "view",
      "type": "function"
    },
    {
      "inputs": [
        {
          "internalType": "uint256",
          "name": "quantity",
          "type": "uint256"
        }
      ],
      "name": "preSaleMint",
      "outputs": [],
      "stateMutability": "payable",
      "type": "function"
    },
    {
      "inputs": [
        {
          "internalType": "uint256",
          "name": "quantity",
          "type": "uint256"
        }
      ],
      "name": "publicSaleMint",
      "outputs": [],
      "stateMutability": "payable",
      "type": "function"
    },
    {
      "inputs": [],
      "name": "renounceOwnership",
      "outputs": [],
      "stateMutability": "nonpayable",
      "type": "function"
    },
    {
      "inputs": [
        {
          "internalType": "address",
          "name": "from",
          "type": "address"
        },
        {
          "internalType": "address",
          "name": "to",
          "type": "address"
        },
        {
          "internalType": "uint256",
          "name": "tokenId",
          "type": "uint256"
        }
      ],
      "name": "safeTransferFrom",
      "outputs": [],
      "stateMutability": "nonpayable",
      "type": "function"
    },
    {
      "inputs": [
        {
          "internalType": "address",
          "name": "from",
          "type": "address"
        },
        {
          "internalType": "address",
          "name": "to",
          "type": "address"
        },
        {
          "internalType": "uint256",
          "name": "tokenId",
          "type": "uint256"
        },
        {
          "internalType": "bytes",
          "name": "_data",
          "type": "bytes"
        }
      ],
      "name": "safeTransferFrom",
      "outputs": [],
      "stateMutability": "nonpayable",
      "type": "function"
    },
    {
      "inputs": [
        {
          "internalType": "address",
          "name": "operator",
          "type": "address"
        },
        {
          "internalType": "bool",
          "name": "approved",
          "type": "bool"
        }
      ],
      "name": "setApprovalForAll",
      "outputs": [],
      "stateMutability": "nonpayable",
      "type": "function"
    },
    {
      "inputs": [
        {
          "internalType": "string",
          "name": "baseURI_",
          "type": "string"
        }
      ],
      "name": "setBaseURI",
      "outputs": [],
      "stateMutability": "nonpayable",
      "type": "function"
    },
    {
      "inputs": [
        {
          "internalType": "uint256",
          "name": "limit",
          "type": "uint256"
        }
      ],
      "name": "setPreSaleLimit",
      "outputs": [],
      "stateMutability": "nonpayable",
      "type": "function"
    },
    {
      "inputs": [
        {
          "internalType": "uint256",
          "name": "price",
          "type": "uint256"
        }
      ],
      "name": "setPreSalePrice",
      "outputs": [],
      "stateMutability": "nonpayable",
      "type": "function"
    },
    {
      "inputs": [
        {
          "internalType": "uint256",
          "name": "quantity",
          "type": "uint256"
        }
      ],
      "name": "setPreSaleQuantity",
      "outputs": [],
      "stateMutability": "nonpayable",
      "type": "function"
    },
    {
      "inputs": [
        {
          "internalType": "uint256",
          "name": "limit",
          "type": "uint256"
        }
      ],
      "name": "setPublicSaleLimit",
      "outputs": [],
      "stateMutability": "nonpayable",
      "type": "function"
    },
    {
      "inputs": [
        {
          "internalType": "uint256",
          "name": "price",
          "type": "uint256"
        }
      ],
      "name": "setPublicSalePrice",
      "outputs": [],
      "stateMutability": "nonpayable",
      "type": "function"
    },
    {
      "inputs": [
        {
          "internalType": "uint256",
          "name": "quantity",
          "type": "uint256"
        }
      ],
      "name": "setPublicSaleQuantity",
      "outputs": [],
      "stateMutability": "nonpayable",
      "type": "function"
    },
    {
      "inputs": [
        {
          "internalType": "bytes4",
          "name": "interfaceId",
          "type": "bytes4"
        }
      ],
      "name": "supportsInterface",
      "outputs": [
        {
          "internalType": "bool",
          "name": "",
          "type": "bool"
        }
      ],
      "stateMutability": "view",
      "type": "function"
    },
    {
      "inputs": [],
      "name": "symbol",
      "outputs": [
        {
          "internalType": "string",
          "name": "",
          "type": "string"
        }
      ],
      "stateMutability": "view",
      "type": "function"
    },
    {
      "inputs": [
        {
          "internalType": "uint256",
          "name": "tokenId",
          "type": "uint256"
        }
      ],
      "name": "tokenURI",
      "outputs": [
        {
          "internalType": "string",
          "name": "",
          "type": "string"
        }
      ],
      "stateMutability": "view",
      "type": "function"
    },
    {
      "inputs": [],
      "name": "totalSupply",
      "outputs": [
        {
          "internalType": "uint256",
          "name": "",
          "type": "uint256"
        }
      ],
      "stateMutability": "view",
      "type": "function"
    },
    {
      "inputs": [
        {
          "internalType": "address",
          "name": "from",
          "type": "address"
        },
        {
          "internalType": "address",
          "name": "to",
          "type": "address"
        },
        {
          "internalType": "uint256",
          "name": "tokenId",
          "type": "uint256"
        }
      ],
      "name": "transferFrom",
      "outputs": [],
      "stateMutability": "nonpayable",
      "type": "function"
    },
    {
      "inputs": [
        {
          "internalType": "address",
          "name": "newOwner",
          "type": "address"
        }
      ],
      "name": "transferOwnership",
      "outputs": [],
      "stateMutability": "nonpayable",
      "type": "function"
    }
  ],
  "bytecode": "0x608060405234801561001057600080fd5b50613a3b806100206000396000f3fe6080604052600436106101cd5760003560e01c806370a08231116100f757806395d89b4111610095578063b88d4fde11610064578063b88d4fde14610604578063c87b56dd1461062d578063e985e9c51461066a578063f2fde38b146106a7576101cd565b806395d89b411461056b57806396b1fea114610596578063a22cb465146105bf578063b3ab66b0146105e8576101cd565b8063791a2519116100d1578063791a2519146104d75780637d7eee42146105005780638129fc1c146105295780638da5cb5b14610540576101cd565b806370a0823114610467578063715018a6146104a45780637835c635146104bb576101cd565b806339d82c591161016f57806355f804b31161013e57806355f804b3146103af57806358a64492146103d85780636352211e146104015780636c9803f61461043e576101cd565b806339d82c591461031d5780633ad152581461034657806342842e0e1461035d5780634b6a20eb14610386576101cd565b8063095ea7b3116101ab578063095ea7b3146102775780630b1f703c146102a057806318160ddd146102c957806323b872dd146102f4576101cd565b806301ffc9a7146101d257806306fdde031461020f578063081812fc1461023a575b600080fd5b3480156101de57600080fd5b506101f960048036038101906101f4919061294f565b6106d0565b6040516102069190612997565b60405180910390f35b34801561021b57600080fd5b50610224610762565b6040516102319190612a4b565b60405180910390f35b34801561024657600080fd5b50610261600480360381019061025c9190612aa3565b6107fd565b60405161026e9190612b11565b60405180910390f35b34801561028357600080fd5b5061029e60048036038101906102999190612b58565b610885565b005b3480156102ac57600080fd5b506102c760048036038101906102c29190612aa3565b6109d2565b005b3480156102d557600080fd5b506102de610a30565b6040516102eb9190612ba7565b60405180910390f35b34801561030057600080fd5b5061031b60048036038101906103169190612bc2565b610a59565b005b34801561032957600080fd5b50610344600480360381019061033f9190612aa3565b610db4565b005b34801561035257600080fd5b5061035b610e12565b005b34801561036957600080fd5b50610384600480360381019061037f9190612bc2565b610ecc565b005b34801561039257600080fd5b506103ad60048036038101906103a89190612aa3565b610eec565b005b3480156103bb57600080fd5b506103d660048036038101906103d19190612d4a565b610f4a565b005b3480156103e457600080fd5b506103ff60048036038101906103fa9190612aa3565b610f75565b005b34801561040d57600080fd5b5061042860048036038101906104239190612aa3565b610fd3565b6040516104359190612b11565b60405180910390f35b34801561044a57600080fd5b5061046560048036038101906104609190612dbf565b610fe5565b005b34801561047357600080fd5b5061048e60048036038101906104899190612dec565b611013565b60405161049b9190612ba7565b60405180910390f35b3480156104b057600080fd5b506104b96110d5565b005b6104d560048036038101906104d09190612aa3565b6110e9565b005b3480156104e357600080fd5b506104fe60048036038101906104f99190612aa3565b611307565b005b34801561050c57600080fd5b5061052760048036038101906105229190612aa3565b611365565b005b34801561053557600080fd5b5061053e6113c3565b005b34801561054c57600080fd5b506105556116ac565b6040516105629190612b11565b60405180910390f35b34801561057757600080fd5b506105806116d6565b60405161058d9190612a4b565b60405180910390f35b3480156105a257600080fd5b506105bd60048036038101906105b89190612dbf565b611771565b005b3480156105cb57600080fd5b506105e660048036038101906105e19190612e19565b61179f565b005b61060260048036038101906105fd9190612aa3565b611920565b005b34801561061057600080fd5b5061062b60048036038101906106269190612efa565b611b3e565b005b34801561063957600080fd5b50610654600480360381019061064f9190612aa3565b611bb1565b6040516106619190612a4b565b60405180910390f35b34801561067657600080fd5b50610691600480360381019061068c9190612f7d565b611c50565b60405161069e9190612997565b60405180910390f35b3480156106b357600080fd5b506106ce60048036038101906106c99190612dec565b611ced565b005b60006301ffc9a760e01b827bffffffffffffffffffffffffffffffffffffffffffffffffffffffff1916148061072b57506380ac58cd60e01b827bffffffffffffffffffffffffffffffffffffffffffffffffffffffff1916145b8061075b5750635b5e139f60e01b827bffffffffffffffffffffffffffffffffffffffffffffffffffffffff1916145b9050919050565b606061076c611d71565b600201805461077a90612fec565b80601f01602080910402602001604051908101604052809291908181526020018280546107a690612fec565b80156107f35780601f106107c8576101008083540402835291602001916107f3565b820191906000526020600020905b8154815290600101906020018083116107d657829003601f168201915b5050505050905090565b600061080882611d9e565b61083e576040517fcf4700e400000000000000000000000000000000000000000000000000000000815260040160405180910390fd5b610846611d71565b600601600083815260200190815260200160002060000160009054906101000a900473ffffffffffffffffffffffffffffffffffffffff169050919050565b600061089082610fd3565b90508073ffffffffffffffffffffffffffffffffffffffff166108b1611e0f565b73ffffffffffffffffffffffffffffffffffffffff1614610914576108dd816108d8611e0f565b611c50565b610913576040517fcfb3b94200000000000000000000000000000000000000000000000000000000815260040160405180910390fd5b5b8261091d611d71565b600601600084815260200190815260200160002060000160006101000a81548173ffffffffffffffffffffffffffffffffffffffff021916908373ffffffffffffffffffffffffffffffffffffffff160217905550818373ffffffffffffffffffffffffffffffffffffffff168273ffffffffffffffffffffffffffffffffffffffff167f8c5be1e5ebec7d5bd14f71427d1e84f3dd0314c0f7b2291e5b200ac8c7c3b92560405160405180910390a4505050565b6109da611e17565b60008111610a1d576040517f08c379a0000000000000000000000000000000000000000000000000000000008152600401610a149061306a565b60405180910390fd5b80610a26611d71565b6008018190555050565b6000610a3a611e95565b610a42611d71565b60010154610a4e611d71565b600001540303905090565b6000610a6482611e9a565b90508373ffffffffffffffffffffffffffffffffffffffff168173ffffffffffffffffffffffffffffffffffffffff1614610acb576040517fa114810000000000000000000000000000000000000000000000000000000000815260040160405180910390fd5b600080610ad784611f83565b91509150610aed8187610ae8611e0f565b611fb3565b610b3957610b0286610afd611e0f565b611c50565b610b38576040517f59c896be00000000000000000000000000000000000000000000000000000000815260040160405180910390fd5b5b600073ffffffffffffffffffffffffffffffffffffffff168573ffffffffffffffffffffffffffffffffffffffff161415610ba0576040517fea553b3400000000000000000000000000000000000000000000000000000000815260040160405180910390fd5b610bad8686866001611ff7565b8015610bb857600082555b610bc0611d71565b60050160008773ffffffffffffffffffffffffffffffffffffffff1673ffffffffffffffffffffffffffffffffffffffff168152602001908152602001600020600081546001900391905081905550610c17611d71565b60050160008673ffffffffffffffffffffffffffffffffffffffff1673ffffffffffffffffffffffffffffffffffffffff1681526020019081526020016000206000815460010191905081905550610c9885610c74888887611ffd565b7c020000000000000000000000000000000000000000000000000000000017612025565b610ca0611d71565b60040160008681526020019081526020016000208190555060007c020000000000000000000000000000000000000000000000000000000084161415610d445760006001850190506000610cf2611d71565b6004016000838152602001908152602001600020541415610d4257610d15611d71565b600001548114610d415783610d28611d71565b6004016000838152602001908152602001600020819055505b5b505b838573ffffffffffffffffffffffffffffffffffffffff168773ffffffffffffffffffffffffffffffffffffffff167fddf252ad1be2c89b69c2b068fc378daa952ba7f163c4a11628f55a4df523b3ef60405160405180910390a4610dac8686866001612050565b505050505050565b610dbc611e17565b60008111610dff576040517f08c379a0000000000000000000000000000000000000000000000000000000008152600401610df69061306a565b60405180910390fd5b80610e08611d71565b6009018190555050565b610e1a611e17565b6000803373ffffffffffffffffffffffffffffffffffffffff1647604051610e41906130bb565b60006040518083038185875af1925050503d8060008114610e7e576040519150601f19603f3d011682016040523d82523d6000602084013e610e83565b606091505b509150915081610ec8576040517f08c379a0000000000000000000000000000000000000000000000000000000008152600401610ebf9061311c565b60405180910390fd5b5050565b610ee783838360405180602001604052806000815250611b3e565b505050565b610ef4611e17565b60008111610f37576040517f08c379a0000000000000000000000000000000000000000000000000000000008152600401610f2e90613188565b60405180910390fd5b80610f40611d71565b600c018190555050565b610f52611e17565b80610f5b611d71565b6012019080519060200190610f71929190612840565b5050565b610f7d611e17565b60008111610fc0576040517f08c379a0000000000000000000000000000000000000000000000000000000008152600401610fb790613188565b60405180910390fd5b80610fc9611d71565b600b018190555050565b6000610fde82611e9a565b9050919050565b610fed611e17565b80610ff6611d71565b60110160016101000a81548160ff02191690831515021790555050565b60008073ffffffffffffffffffffffffffffffffffffffff168273ffffffffffffffffffffffffffffffffffffffff16141561107b576040517f8f4eb60400000000000000000000000000000000000000000000000000000000815260040160405180910390fd5b67ffffffffffffffff61108c611d71565b60050160008473ffffffffffffffffffffffffffffffffffffffff1673ffffffffffffffffffffffffffffffffffffffff16815260200190815260200160002054169050919050565b6110dd611e17565b6110e76000612056565b565b6110f1611d71565b60110160019054906101000a900460ff16611141576040517f08c379a0000000000000000000000000000000000000000000000000000000008152600401611138906131f4565b60405180910390fd5b8061114a611d71565b600f01546111589190613243565b611160611d71565b600b015410156111a5576040517f08c379a000000000000000000000000000000000000000000000000000000000815260040161119c906132e5565b60405180910390fd5b6111ad611d71565b60080154816111ba611d71565b60130160003373ffffffffffffffffffffffffffffffffffffffff1673ffffffffffffffffffffffffffffffffffffffff168152602001908152602001600020546112059190613243565b1115611246576040517f08c379a000000000000000000000000000000000000000000000000000000000815260040161123d90613351565b60405180910390fd5b6000611250611d71565b600e01548261125f9190613371565b90508034146112a3576040517f08c379a000000000000000000000000000000000000000000000000000000000815260040161129a90613417565b60405180910390fd5b6112ad338361211c565b816112b6611d71565b5050816112c1611d71565b60130160003373ffffffffffffffffffffffffffffffffffffffff1673ffffffffffffffffffffffffffffffffffffffff16815260200190815260200160002050505050565b61130f611e17565b60008111611352576040517f08c379a000000000000000000000000000000000000000000000000000000000815260040161134990613483565b60405180910390fd5b8061135b611d71565b600d018190555050565b61136d611e17565b600081116113b0576040517f08c379a00000000000000000000000000000000000000000000000000000000081526004016113a790613483565b60405180910390fd5b806113b9611d71565b600e018190555050565b6113cb6122fe565b60000160019054906101000a900460ff166113ff576113e86122fe565b60000160009054906101000a900460ff1615611408565b61140761232b565b5b611447576040517f08c379a000000000000000000000000000000000000000000000000000000000815260040161143e90613515565b60405180910390fd5b60006114516122fe565b60000160019054906101000a900460ff1615905080156114b45760016114756122fe565b60000160016101000a81548160ff02191690831515021790555060016114996122fe565b60000160006101000a81548160ff0219169083151502179055505b600060018054906101000a900460ff161590508080156114e5575060018060009054906101000a900460ff1660ff16105b8061151357506114f430612342565b158015611512575060018060009054906101000a900460ff1660ff16145b5b611552576040517f08c379a0000000000000000000000000000000000000000000000000000000008152600401611549906135a7565b60405180910390fd5b60018060006101000a81548160ff021916908360ff160217905550801561158e5760018060016101000a81548160ff0219169083151502179055505b61161c6040518060400160405280600a81526020017f4d65726b6c6554726565000000000000000000000000000000000000000000008152506040518060400160405280600281526020017f4d5400000000000000000000000000000000000000000000000000000000000081525066b1a2bc2ec50000666a94d74f4300006101f46101c2600a6005612365565b6116246123d7565b801561167d5760006001806101000a81548160ff0219169083151502179055507f7f26b83ff96e1f2b6a682f133852f6798a09c465da95921460cefb384740249860016040516116749190613619565b60405180910390a15b5080156116a957600061168e6122fe565b60000160016101000a81548160ff0219169083151502179055505b50565b6000603460009054906101000a900473ffffffffffffffffffffffffffffffffffffffff16905090565b60606116e0611d71565b60030180546116ee90612fec565b80601f016020809104026020016040519081016040528092919081815260200182805461171a90612fec565b80156117675780601f1061173c57610100808354040283529160200191611767565b820191906000526020600020905b81548152906001019060200180831161174a57829003601f168201915b5050505050905090565b611779611e17565b80611782611d71565b60110160006101000a81548160ff02191690831515021790555050565b6117a7611e0f565b73ffffffffffffffffffffffffffffffffffffffff168273ffffffffffffffffffffffffffffffffffffffff16141561180c576040517fb06307db00000000000000000000000000000000000000000000000000000000815260040160405180910390fd5b80611815611d71565b6007016000611822611e0f565b73ffffffffffffffffffffffffffffffffffffffff1673ffffffffffffffffffffffffffffffffffffffff16815260200190815260200160002060008473ffffffffffffffffffffffffffffffffffffffff1673ffffffffffffffffffffffffffffffffffffffff16815260200190815260200160002060006101000a81548160ff0219169083151502179055508173ffffffffffffffffffffffffffffffffffffffff166118cf611e0f565b73ffffffffffffffffffffffffffffffffffffffff167f17307eab39ab6107e8899845ad3d59bd9653f200f220920489ca2b5937696c31836040516119149190612997565b60405180910390a35050565b611928611d71565b60110160009054906101000a900460ff16611978576040517f08c379a000000000000000000000000000000000000000000000000000000000815260040161196f90613680565b60405180910390fd5b80611981611d71565b6010015461198f9190613243565b611997611d71565b600c015410156119dc576040517f08c379a00000000000000000000000000000000000000000000000000000000081526004016119d3906132e5565b60405180910390fd5b6119e4611d71565b60090154816119f1611d71565b60140160003373ffffffffffffffffffffffffffffffffffffffff1673ffffffffffffffffffffffffffffffffffffffff16815260200190815260200160002054611a3c9190613243565b1115611a7d576040517f08c379a0000000000000000000000000000000000000000000000000000000008152600401611a7490613351565b60405180910390fd5b6000611a87611d71565b600d015482611a969190613371565b9050803414611ada576040517f08c379a0000000000000000000000000000000000000000000000000000000008152600401611ad190613417565b60405180910390fd5b611ae4338361211c565b81611aed611d71565b505081611af8611d71565b60140160003373ffffffffffffffffffffffffffffffffffffffff1673ffffffffffffffffffffffffffffffffffffffff16815260200190815260200160002050505050565b611b49848484610a59565b60008373ffffffffffffffffffffffffffffffffffffffff163b14611bab57611b748484848461242e565b611baa576040517fd1a57ed600000000000000000000000000000000000000000000000000000000815260040160405180910390fd5b5b50505050565b6060611bbc82611d9e565b611bf2576040517fa14c4b5000000000000000000000000000000000000000000000000000000000815260040160405180910390fd5b6000611bfc61258e565b9050600081511415611c1d5760405180602001604052806000815250611c48565b80611c2784612629565b604051602001611c389291906136dc565b6040516020818303038152906040525b915050919050565b6000611c5a611d71565b60070160008473ffffffffffffffffffffffffffffffffffffffff1673ffffffffffffffffffffffffffffffffffffffff16815260200190815260200160002060008373ffffffffffffffffffffffffffffffffffffffff1673ffffffffffffffffffffffffffffffffffffffff16815260200190815260200160002060009054906101000a900460ff16905092915050565b611cf5611e17565b600073ffffffffffffffffffffffffffffffffffffffff168173ffffffffffffffffffffffffffffffffffffffff161415611d65576040517f08c379a0000000000000000000000000000000000000000000000000000000008152600401611d5c90613772565b60405180910390fd5b611d6e81612056565b50565b6000807f2569078dfb4b0305704d3008e7403993ae9601b85f7ae5e742de3de8f8011c4090508091505090565b600081611da9611e95565b11158015611dc15750611dba611d71565b6000015482105b8015611e08575060007c0100000000000000000000000000000000000000000000000000000000611df0611d71565b60040160008581526020019081526020016000205416145b9050919050565b600033905090565b611e1f612679565b73ffffffffffffffffffffffffffffffffffffffff16611e3d6116ac565b73ffffffffffffffffffffffffffffffffffffffff1614611e93576040517f08c379a0000000000000000000000000000000000000000000000000000000008152600401611e8a906137de565b60405180910390fd5b565b600090565b60008082905080611ea9611e95565b11611f4c57611eb6611d71565b60000154811015611f4b576000611ecb611d71565b600401600083815260200190815260200160002054905060007c010000000000000000000000000000000000000000000000000000000082161415611f49575b6000811415611f3f57611f1c611d71565b600401600083600190039350838152602001908152602001600020549050611f0b565b8092505050611f7e565b505b5b6040517fdf2d9b4200000000000000000000000000000000000000000000000000000000815260040160405180910390fd5b919050565b6000806000611f90611d71565b600601600085815260200190815260200160002090508092508254915050915091565b600073ffffffffffffffffffffffffffffffffffffffff8316925073ffffffffffffffffffffffffffffffffffffffff821691508382148383141790509392505050565b50505050565b60008060e883901c905060e8612014868684612681565b62ffffff16901b9150509392505050565b600073ffffffffffffffffffffffffffffffffffffffff83169250814260a01b178317905092915050565b50505050565b6000603460009054906101000a900473ffffffffffffffffffffffffffffffffffffffff16905081603460006101000a81548173ffffffffffffffffffffffffffffffffffffffff021916908373ffffffffffffffffffffffffffffffffffffffff1602179055508173ffffffffffffffffffffffffffffffffffffffff168173ffffffffffffffffffffffffffffffffffffffff167f8be0079c531659141344cd1fd0a4f28419497f9722a3daafe3b4186f6b6457e060405160405180910390a35050565b6000612126611d71565b6000015490506000821415612167576040517fb562e8dd00000000000000000000000000000000000000000000000000000000815260040160405180910390fd5b6121746000848385611ff7565b600160406001901b178202612187611d71565b60050160008573ffffffffffffffffffffffffffffffffffffffff1673ffffffffffffffffffffffffffffffffffffffff168152602001908152602001600020600082825401925050819055506121f4836121e56000866000611ffd565b6121ee8561268a565b17612025565b6121fc611d71565b600401600083815260200190815260200160002081905550600080838301905073ffffffffffffffffffffffffffffffffffffffff85169150828260007fddf252ad1be2c89b69c2b068fc378daa952ba7f163c4a11628f55a4df523b3ef600080a4600183015b81811461229e57808360007fddf252ad1be2c89b69c2b068fc378daa952ba7f163c4a11628f55a4df523b3ef600080a4600181019050612263565b5060008214156122da576040517f2e07630000000000000000000000000000000000000000000000000000000000815260040160405180910390fd5b806122e3611d71565b6000018190555050506122f96000848385612050565b505050565b6000807fee151c8401928dc223602bb187aff91b9a56c7cae5476ef1b3287b085a16c85f90508091505090565b6000803090506000813b9050600081149250505090565b6000808273ffffffffffffffffffffffffffffffffffffffff163b119050919050565b61236d6122fe565b60000160019054906101000a900460ff166123bd576040517f08c379a00000000000000000000000000000000000000000000000000000000081526004016123b490613870565b60405180910390fd5b6123cd888888888888888861269a565b5050505050505050565b60018054906101000a900460ff16612424576040517f08c379a000000000000000000000000000000000000000000000000000000000815260040161241b90613902565b60405180910390fd5b61242c6127e1565b565b60008373ffffffffffffffffffffffffffffffffffffffff1663150b7a02612454611e0f565b8786866040518563ffffffff1660e01b81526004016124769493929190613977565b602060405180830381600087803b15801561249057600080fd5b505af19250505080156124c157506040513d601f19601f820116820180604052508101906124be91906139d8565b60015b61253b573d80600081146124f1576040519150601f19603f3d011682016040523d82523d6000602084013e6124f6565b606091505b50600081511415612533576040517fd1a57ed600000000000000000000000000000000000000000000000000000000815260040160405180910390fd5b805181602001fd5b63150b7a0260e01b7bffffffffffffffffffffffffffffffffffffffffffffffffffffffff1916817bffffffffffffffffffffffffffffffffffffffffffffffffffffffff191614915050949350505050565b6060612598611d71565b60120180546125a690612fec565b80601f01602080910402602001604051908101604052809291908181526020018280546125d290612fec565b801561261f5780601f106125f45761010080835404028352916020019161261f565b820191906000526020600020905b81548152906001019060200180831161260257829003601f168201915b5050505050905090565b606060806040510190508060405280825b60011561266557600183039250600a81066030018353600a810490508061266057612665565b61263a565b508181036020830392508083525050919050565b600033905090565b60009392505050565b60006001821460e11b9050919050565b6126a26122fe565b60000160019054906101000a900460ff166126f2576040517f08c379a00000000000000000000000000000000000000000000000000000000081526004016126e990613870565b60405180910390fd5b876126fb611d71565b6002019080519060200190612711929190612840565b508661271b611d71565b6003019080519060200190612731929190612840565b508561273b611d71565b600d01819055508461274b611d71565b600e01819055508261275b611d71565b600c01819055508361276b611d71565b600b01819055508061277b611d71565b600801819055508161278b611d71565b6009018190555061279a611e95565b6127a2611d71565b600001819055506127b1611e95565b6127b9611d71565b600f01819055506127c8611e95565b6127d0611d71565b601001819055505050505050505050565b60018054906101000a900460ff1661282e576040517f08c379a000000000000000000000000000000000000000000000000000000000815260040161282590613902565b60405180910390fd5b61283e612839612679565b612056565b565b82805461284c90612fec565b90600052602060002090601f01602090048101928261286e57600085556128b5565b82601f1061288757805160ff19168380011785556128b5565b828001600101855582156128b5579182015b828111156128b4578251825591602001919060010190612899565b5b5090506128c291906128c6565b5090565b5b808211156128df5760008160009055506001016128c7565b5090565b6000604051905090565b600080fd5b600080fd5b60007fffffffff0000000000000000000000000000000000000000000000000000000082169050919050565b61292c816128f7565b811461293757600080fd5b50565b60008135905061294981612923565b92915050565b600060208284031215612965576129646128ed565b5b60006129738482850161293a565b91505092915050565b60008115159050919050565b6129918161297c565b82525050565b60006020820190506129ac6000830184612988565b92915050565b600081519050919050565b600082825260208201905092915050565b60005b838110156129ec5780820151818401526020810190506129d1565b838111156129fb576000848401525b50505050565b6000601f19601f8301169050919050565b6000612a1d826129b2565b612a2781856129bd565b9350612a378185602086016129ce565b612a4081612a01565b840191505092915050565b60006020820190508181036000830152612a658184612a12565b905092915050565b6000819050919050565b612a8081612a6d565b8114612a8b57600080fd5b50565b600081359050612a9d81612a77565b92915050565b600060208284031215612ab957612ab86128ed565b5b6000612ac784828501612a8e565b91505092915050565b600073ffffffffffffffffffffffffffffffffffffffff82169050919050565b6000612afb82612ad0565b9050919050565b612b0b81612af0565b82525050565b6000602082019050612b266000830184612b02565b92915050565b612b3581612af0565b8114612b4057600080fd5b50565b600081359050612b5281612b2c565b92915050565b60008060408385031215612b6f57612b6e6128ed565b5b6000612b7d85828601612b43565b9250506020612b8e85828601612a8e565b9150509250929050565b612ba181612a6d565b82525050565b6000602082019050612bbc6000830184612b98565b92915050565b600080600060608486031215612bdb57612bda6128ed565b5b6000612be986828701612b43565b9350506020612bfa86828701612b43565b9250506040612c0b86828701612a8e565b9150509250925092565b600080fd5b600080fd5b7f4e487b7100000000000000000000000000000000000000000000000000000000600052604160045260246000fd5b612c5782612a01565b810181811067ffffffffffffffff82111715612c7657612c75612c1f565b5b80604052505050565b6000612c896128e3565b9050612c958282612c4e565b919050565b600067ffffffffffffffff821115612cb557612cb4612c1f565b5b612cbe82612a01565b9050602081019050919050565b82818337600083830152505050565b6000612ced612ce884612c9a565b612c7f565b905082815260208101848484011115612d0957612d08612c1a565b5b612d14848285612ccb565b509392505050565b600082601f830112612d3157612d30612c15565b5b8135612d41848260208601612cda565b91505092915050565b600060208284031215612d6057612d5f6128ed565b5b600082013567ffffffffffffffff811115612d7e57612d7d6128f2565b5b612d8a84828501612d1c565b91505092915050565b612d9c8161297c565b8114612da757600080fd5b50565b600081359050612db981612d93565b92915050565b600060208284031215612dd557612dd46128ed565b5b6000612de384828501612daa565b91505092915050565b600060208284031215612e0257612e016128ed565b5b6000612e1084828501612b43565b91505092915050565b60008060408385031215612e3057612e2f6128ed565b5b6000612e3e85828601612b43565b9250506020612e4f85828601612daa565b9150509250929050565b600067ffffffffffffffff821115612e7457612e73612c1f565b5b612e7d82612a01565b9050602081019050919050565b6000612e9d612e9884612e59565b612c7f565b905082815260208101848484011115612eb957612eb8612c1a565b5b612ec4848285612ccb565b509392505050565b600082601f830112612ee157612ee0612c15565b5b8135612ef1848260208601612e8a565b91505092915050565b60008060008060808587031215612f1457612f136128ed565b5b6000612f2287828801612b43565b9450506020612f3387828801612b43565b9350506040612f4487828801612a8e565b925050606085013567ffffffffffffffff811115612f6557612f646128f2565b5b612f7187828801612ecc565b91505092959194509250565b60008060408385031215612f9457612f936128ed565b5b6000612fa285828601612b43565b9250506020612fb385828601612b43565b9150509250929050565b7f4e487b7100000000000000000000000000000000000000000000000000000000600052602260045260246000fd5b6000600282049050600182168061300457607f821691505b6020821081141561301857613017612fbd565b5b50919050565b7f4c696d6974206d7573742062652067726561746572207468616e203000000000600082015250565b6000613054601c836129bd565b915061305f8261301e565b602082019050919050565b6000602082019050818103600083015261308381613047565b9050919050565b600081905092915050565b50565b60006130a560008361308a565b91506130b082613095565b600082019050919050565b60006130c682613098565b9150819050919050565b7f4661696c656420746f2073656e64204574686572000000000000000000000000600082015250565b60006131066014836129bd565b9150613111826130d0565b602082019050919050565b60006020820190508181036000830152613135816130f9565b9050919050565b7f5175616e74697479206d7573742062652067726561746572207468616e203000600082015250565b6000613172601f836129bd565b915061317d8261313c565b602082019050919050565b600060208201905081810360008301526131a181613165565b9050919050565b7f50726573616c65206973206e6f74206163746976650000000000000000000000600082015250565b60006131de6015836129bd565b91506131e9826131a8565b602082019050919050565b6000602082019050818103600083015261320d816131d1565b9050919050565b7f4e487b7100000000000000000000000000000000000000000000000000000000600052601160045260246000fd5b600061324e82612a6d565b915061325983612a6d565b9250827fffffffffffffffffffffffffffffffffffffffffffffffffffffffffffffffff0382111561328e5761328d613214565b5b828201905092915050565b7f5472616e73666572206578636565647320746f74616c20737570706c792e0000600082015250565b60006132cf601e836129bd565b91506132da82613299565b602082019050919050565b600060208201905081810360008301526132fe816132c2565b9050919050565b7f5472616e736665722065786365656473206d617820616d6f756e742e00000000600082015250565b600061333b601c836129bd565b915061334682613305565b602082019050919050565b6000602082019050818103600083015261336a8161332e565b9050919050565b600061337c82612a6d565b915061338783612a6d565b9250817fffffffffffffffffffffffffffffffffffffffffffffffffffffffffffffffff04831182151516156133c0576133bf613214565b5b828202905092915050565b7f5072696365206e6f7420636f76657265642e0000000000000000000000000000600082015250565b60006134016012836129bd565b915061340c826133cb565b602082019050919050565b60006020820190508181036000830152613430816133f4565b9050919050565b7f5072696365206d7573742062652067726561746572207468616e203000000000600082015250565b600061346d601c836129bd565b915061347882613437565b602082019050919050565b6000602082019050818103600083015261349c81613460565b9050919050565b7f455243373231415f5f496e697469616c697a61626c653a20636f6e747261637460008201527f20697320616c726561647920696e697469616c697a6564000000000000000000602082015250565b60006134ff6037836129bd565b915061350a826134a3565b604082019050919050565b6000602082019050818103600083015261352e816134f2565b9050919050565b7f496e697469616c697a61626c653a20636f6e747261637420697320616c72656160008201527f647920696e697469616c697a6564000000000000000000000000000000000000602082015250565b6000613591602e836129bd565b915061359c82613535565b604082019050919050565b600060208201905081810360008301526135c081613584565b9050919050565b6000819050919050565b600060ff82169050919050565b6000819050919050565b60006136036135fe6135f9846135c7565b6135de565b6135d1565b9050919050565b613613816135e8565b82525050565b600060208201905061362e600083018461360a565b92915050565b7f5075626c69632073616c65206973206e6f742061637469766500000000000000600082015250565b600061366a6019836129bd565b915061367582613634565b602082019050919050565b600060208201905081810360008301526136998161365d565b9050919050565b600081905092915050565b60006136b6826129b2565b6136c081856136a0565b93506136d08185602086016129ce565b80840191505092915050565b60006136e882856136ab565b91506136f482846136ab565b91508190509392505050565b7f4f776e61626c653a206e6577206f776e657220697320746865207a65726f206160008201527f6464726573730000000000000000000000000000000000000000000000000000602082015250565b600061375c6026836129bd565b915061376782613700565b604082019050919050565b6000602082019050818103600083015261378b8161374f565b9050919050565b7f4f776e61626c653a2063616c6c6572206973206e6f7420746865206f776e6572600082015250565b60006137c86020836129bd565b91506137d382613792565b602082019050919050565b600060208201905081810360008301526137f7816137bb565b9050919050565b7f455243373231415f5f496e697469616c697a61626c653a20636f6e747261637460008201527f206973206e6f7420696e697469616c697a696e67000000000000000000000000602082015250565b600061385a6034836129bd565b9150613865826137fe565b604082019050919050565b600060208201905081810360008301526138898161384d565b9050919050565b7f496e697469616c697a61626c653a20636f6e7472616374206973206e6f74206960008201527f6e697469616c697a696e67000000000000000000000000000000000000000000602082015250565b60006138ec602b836129bd565b91506138f782613890565b604082019050919050565b6000602082019050818103600083015261391b816138df565b9050919050565b600081519050919050565b600082825260208201905092915050565b600061394982613922565b613953818561392d565b93506139638185602086016129ce565b61396c81612a01565b840191505092915050565b600060808201905061398c6000830187612b02565b6139996020830186612b02565b6139a66040830185612b98565b81810360608301526139b8818461393e565b905095945050505050565b6000815190506139d281612923565b92915050565b6000602082840312156139ee576139ed6128ed565b5b60006139fc848285016139c3565b9150509291505056fea264697066735822122086ba015d14c921a083d5529ff52bea015b5df86d46cb70e2271c783039ca948164736f6c63430008090033",
  "linkReferences": {},
  "deployedLinkReferences": {}
}