{
  "_format": "hh-sol-artifact-1",
  "contractName": "ERC721AUpgradeable",
  "sourceName": "contracts/ERC721-upgradeable/ERC721AUpgradeable.sol",
  "abi": [
    {
      "inputs": [],
      "name": "ApprovalCallerNotOwnerNorApproved",
      "type": "error"
    },
    {
      "inputs": [],
      "name": "ApprovalQueryForNonexistentToken",
      "type": "error"
    },
    {
      "inputs": [],
      "name": "ApproveToCaller",
      "type": "error"
    },
    {
      "inputs": [],
      "name": "BalanceQueryForZeroAddress",
      "type": "error"
    },
    {
      "inputs": [],
      "name": "CollectionSizeZero",
      "type": "error"
    },
    {
      "inputs": [],
      "name": "ExceedsMaximumBatchSize",
      "type": "error"
    },
    {
      "inputs": [],
      "name": "MaximumBatchSizeZero",
      "type": "error"
    },
    {
      "inputs": [],
      "name": "MintERC2309QuantityExceedsLimit",
      "type": "error"
    },
    {
      "inputs": [],
      "name": "MintToZeroAddress",
      "type": "error"
    },
    {
      "inputs": [],
      "name": "MintZeroQuantity",
      "type": "error"
    },
    {
      "inputs": [],
      "name": "OwnerQueryForNonexistentToken",
      "type": "error"
    },
    {
      "inputs": [],
      "name": "OwnershipNotInitializedForExtraData",
      "type": "error"
    },
    {
      "inputs": [],
      "name": "TransferCallerNotOwnerNorApproved",
      "type": "error"
    },
    {
      "inputs": [],
      "name": "TransferFromIncorrectOwner",
      "type": "error"
    },
    {
      "inputs": [],
      "name": "TransferToNonERC721ReceiverImplementer",
      "type": "error"
    },
    {
      "inputs": [],
      "name": "TransferToZeroAddress",
      "type": "error"
    },
    {
      "inputs": [],
      "name": "URIQueryForNonexistentToken",
      "type": "error"
    },
    {
      "anonymous": false,
      "inputs": [
        {
          "indexed": true,
          "internalType": "address",
          "name": "owner",
          "type": "address"
        },
        {
          "indexed": true,
          "internalType": "address",
          "name": "approved",
          "type": "address"
        },
        {
          "indexed": true,
          "internalType": "uint256",
          "name": "tokenId",
          "type": "uint256"
        }
      ],
      "name": "Approval",
      "type": "event"
    },
    {
      "anonymous": false,
      "inputs": [
        {
          "indexed": true,
          "internalType": "address",
          "name": "owner",
          "type": "address"
        },
        {
          "indexed": true,
          "internalType": "address",
          "name": "operator",
          "type": "address"
        },
        {
          "indexed": false,
          "internalType": "bool",
          "name": "approved",
          "type": "bool"
        }
      ],
      "name": "ApprovalForAll",
      "type": "event"
    },
    {
      "anonymous": false,
      "inputs": [
        {
          "indexed": true,
          "internalType": "uint256",
          "name": "fromTokenId",
          "type": "uint256"
        },
        {
          "indexed": false,
          "internalType": "uint256",
          "name": "toTokenId",
          "type": "uint256"
        },
        {
          "indexed": true,
          "internalType": "address",
          "name": "from",
          "type": "address"
        },
        {
          "indexed": true,
          "internalType": "address",
          "name": "to",
          "type": "address"
        }
      ],
      "name": "ConsecutiveTransfer",
      "type": "event"
    },
    {
      "anonymous": false,
      "inputs": [
        {
          "indexed": true,
          "internalType": "address",
          "name": "from",
          "type": "address"
        },
        {
          "indexed": true,
          "internalType": "address",
          "name": "to",
          "type": "address"
        },
        {
          "indexed": true,
          "internalType": "uint256",
          "name": "tokenId",
          "type": "uint256"
        }
      ],
      "name": "Transfer",
      "type": "event"
    },
    {
      "inputs": [
        {
          "internalType": "address",
          "name": "to",
          "type": "address"
        },
        {
          "internalType": "uint256",
          "name": "tokenId",
          "type": "uint256"
        }
      ],
      "name": "approve",
      "outputs": [],
      "stateMutability": "nonpayable",
      "type": "function"
    },
    {
      "inputs": [
        {
          "internalType": "address",
          "name": "owner",
          "type": "address"
        }
      ],
      "name": "balanceOf",
      "outputs": [
        {
          "internalType": "uint256",
          "name": "",
          "type": "uint256"
        }
      ],
      "stateMutability": "view",
      "type": "function"
    },
    {
      "inputs": [
        {
          "internalType": "uint256",
          "name": "tokenId",
          "type": "uint256"
        }
      ],
      "name": "getApproved",
      "outputs": [
        {
          "internalType": "address",
          "name": "",
          "type": "address"
        }
      ],
      "stateMutability": "view",
      "type": "function"
    },
    {
      "inputs": [
        {
          "internalType": "address",
          "name": "owner",
          "type": "address"
        },
        {
          "internalType": "address",
          "name": "operator",
          "type": "address"
        }
      ],
      "name": "isApprovedForAll",
      "outputs": [
        {
          "internalType": "bool",
          "name": "",
          "type": "bool"
        }
      ],
      "stateMutability": "view",
      "type": "function"
    },
    {
      "inputs": [],
      "name": "name",
      "outputs": [
        {
          "internalType": "string",
          "name": "",
          "type": "string"
        }
      ],
      "stateMutability": "view",
      "type": "function"
    },
    {
      "inputs": [
        {
          "internalType": "uint256",
          "name": "tokenId",
          "type": "uint256"
        }
      ],
      "name": "ownerOf",
      "outputs": [
        {
          "internalType": "address",
          "name": "",
          "type": "address"
        }
      ],
      "stateMutability": "view",
      "type": "function"
    },
    {
      "inputs": [
        {
          "internalType": "address",
          "name": "from",
          "type": "address"
        },
        {
          "internalType": "address",
          "name": "to",
          "type": "address"
        },
        {
          "internalType": "uint256",
          "name": "tokenId",
          "type": "uint256"
        }
      ],
      "name": "safeTransferFrom",
      "outputs": [],
      "stateMutability": "nonpayable",
      "type": "function"
    },
    {
      "inputs": [
        {
          "internalType": "address",
          "name": "from",
          "type": "address"
        },
        {
          "internalType": "address",
          "name": "to",
          "type": "address"
        },
        {
          "internalType": "uint256",
          "name": "tokenId",
          "type": "uint256"
        },
        {
          "internalType": "bytes",
          "name": "_data",
          "type": "bytes"
        }
      ],
      "name": "safeTransferFrom",
      "outputs": [],
      "stateMutability": "nonpayable",
      "type": "function"
    },
    {
      "inputs": [
        {
          "internalType": "address",
          "name": "operator",
          "type": "address"
        },
        {
          "internalType": "bool",
          "name": "approved",
          "type": "bool"
        }
      ],
      "name": "setApprovalForAll",
      "outputs": [],
      "stateMutability": "nonpayable",
      "type": "function"
    },
    {
      "inputs": [
        {
          "internalType": "bytes4",
          "name": "interfaceId",
          "type": "bytes4"
        }
      ],
      "name": "supportsInterface",
      "outputs": [
        {
          "internalType": "bool",
          "name": "",
          "type": "bool"
        }
      ],
      "stateMutability": "view",
      "type": "function"
    },
    {
      "inputs": [],
      "name": "symbol",
      "outputs": [
        {
          "internalType": "string",
          "name": "",
          "type": "string"
        }
      ],
      "stateMutability": "view",
      "type": "function"
    },
    {
      "inputs": [
        {
          "internalType": "uint256",
          "name": "tokenId",
          "type": "uint256"
        }
      ],
      "name": "tokenURI",
      "outputs": [
        {
          "internalType": "string",
          "name": "",
          "type": "string"
        }
      ],
      "stateMutability": "view",
      "type": "function"
    },
    {
      "inputs": [],
      "name": "totalSupply",
      "outputs": [
        {
          "internalType": "uint256",
          "name": "",
          "type": "uint256"
        }
      ],
      "stateMutability": "view",
      "type": "function"
    },
    {
      "inputs": [
        {
          "internalType": "address",
          "name": "from",
          "type": "address"
        },
        {
          "internalType": "address",
          "name": "to",
          "type": "address"
        },
        {
          "internalType": "uint256",
          "name": "tokenId",
          "type": "uint256"
        }
      ],
      "name": "transferFrom",
      "outputs": [],
      "stateMutability": "nonpayable",
      "type": "function"
    }
  ],
  "bytecode": "0x608060405234801561001057600080fd5b50611bf9806100206000396000f3fe608060405234801561001057600080fd5b50600436106100ea5760003560e01c80636352211e1161008c578063a22cb46511610066578063a22cb4651461025d578063b88d4fde14610279578063c87b56dd14610295578063e985e9c5146102c5576100ea565b80636352211e146101df57806370a082311461020f57806395d89b411461023f576100ea565b8063095ea7b3116100c8578063095ea7b31461016d57806318160ddd1461018957806323b872dd146101a757806342842e0e146101c3576100ea565b806301ffc9a7146100ef57806306fdde031461011f578063081812fc1461013d575b600080fd5b610109600480360381019061010491906114bb565b6102f5565b6040516101169190611503565b60405180910390f35b610127610387565b60405161013491906115b7565b60405180910390f35b6101576004803603810190610152919061160f565b610422565b604051610164919061167d565b60405180910390f35b610187600480360381019061018291906116c4565b6104aa565b005b6101916105f7565b60405161019e9190611713565b60405180910390f35b6101c160048036038101906101bc919061172e565b610620565b005b6101dd60048036038101906101d8919061172e565b61097b565b005b6101f960048036038101906101f4919061160f565b61099b565b604051610206919061167d565b60405180910390f35b61022960048036038101906102249190611781565b6109ad565b6040516102369190611713565b60405180910390f35b610247610a6f565b60405161025491906115b7565b60405180910390f35b610277600480360381019061027291906117da565b610b0a565b005b610293600480360381019061028e919061194f565b610c8b565b005b6102af60048036038101906102aa919061160f565b610cfe565b6040516102bc91906115b7565b60405180910390f35b6102df60048036038101906102da91906119d2565b610ef3565b6040516102ec9190611503565b60405180910390f35b60006301ffc9a760e01b827bffffffffffffffffffffffffffffffffffffffffffffffffffffffff1916148061035057506380ac58cd60e01b827bffffffffffffffffffffffffffffffffffffffffffffffffffffffff1916145b806103805750635b5e139f60e01b827bffffffffffffffffffffffffffffffffffffffffffffffffffffffff1916145b9050919050565b6060610391610f90565b600201805461039f90611a41565b80601f01602080910402602001604051908101604052809291908181526020018280546103cb90611a41565b80156104185780601f106103ed57610100808354040283529160200191610418565b820191906000526020600020905b8154815290600101906020018083116103fb57829003601f168201915b5050505050905090565b600061042d82610fbd565b610463576040517fcf4700e400000000000000000000000000000000000000000000000000000000815260040160405180910390fd5b61046b610f90565b600601600083815260200190815260200160002060000160009054906101000a900473ffffffffffffffffffffffffffffffffffffffff169050919050565b60006104b58261099b565b90508073ffffffffffffffffffffffffffffffffffffffff166104d661102e565b73ffffffffffffffffffffffffffffffffffffffff161461053957610502816104fd61102e565b610ef3565b610538576040517fcfb3b94200000000000000000000000000000000000000000000000000000000815260040160405180910390fd5b5b82610542610f90565b600601600084815260200190815260200160002060000160006101000a81548173ffffffffffffffffffffffffffffffffffffffff021916908373ffffffffffffffffffffffffffffffffffffffff160217905550818373ffffffffffffffffffffffffffffffffffffffff168273ffffffffffffffffffffffffffffffffffffffff167f8c5be1e5ebec7d5bd14f71427d1e84f3dd0314c0f7b2291e5b200ac8c7c3b92560405160405180910390a4505050565b6000610601611036565b610609610f90565b60010154610615610f90565b600001540303905090565b600061062b8261103f565b90508373ffffffffffffffffffffffffffffffffffffffff168173ffffffffffffffffffffffffffffffffffffffff1614610692576040517fa114810000000000000000000000000000000000000000000000000000000000815260040160405180910390fd5b60008061069e84611128565b915091506106b481876106af61102e565b611158565b610700576106c9866106c461102e565b610ef3565b6106ff576040517f59c896be00000000000000000000000000000000000000000000000000000000815260040160405180910390fd5b5b600073ffffffffffffffffffffffffffffffffffffffff168573ffffffffffffffffffffffffffffffffffffffff161415610767576040517fea553b3400000000000000000000000000000000000000000000000000000000815260040160405180910390fd5b610774868686600161119c565b801561077f57600082555b610787610f90565b60050160008773ffffffffffffffffffffffffffffffffffffffff1673ffffffffffffffffffffffffffffffffffffffff1681526020019081526020016000206000815460019003919050819055506107de610f90565b60050160008673ffffffffffffffffffffffffffffffffffffffff1673ffffffffffffffffffffffffffffffffffffffff168152602001908152602001600020600081546001019190508190555061085f8561083b8888876111a2565b7c0200000000000000000000000000000000000000000000000000000000176111ca565b610867610f90565b60040160008681526020019081526020016000208190555060007c02000000000000000000000000000000000000000000000000000000008416141561090b57600060018501905060006108b9610f90565b6004016000838152602001908152602001600020541415610909576108dc610f90565b60000154811461090857836108ef610f90565b6004016000838152602001908152602001600020819055505b5b505b838573ffffffffffffffffffffffffffffffffffffffff168773ffffffffffffffffffffffffffffffffffffffff167fddf252ad1be2c89b69c2b068fc378daa952ba7f163c4a11628f55a4df523b3ef60405160405180910390a461097386868660016111f5565b505050505050565b61099683838360405180602001604052806000815250610c8b565b505050565b60006109a68261103f565b9050919050565b60008073ffffffffffffffffffffffffffffffffffffffff168273ffffffffffffffffffffffffffffffffffffffff161415610a15576040517f8f4eb60400000000000000000000000000000000000000000000000000000000815260040160405180910390fd5b67ffffffffffffffff610a26610f90565b60050160008473ffffffffffffffffffffffffffffffffffffffff1673ffffffffffffffffffffffffffffffffffffffff16815260200190815260200160002054169050919050565b6060610a79610f90565b6003018054610a8790611a41565b80601f0160208091040260200160405190810160405280929190818152602001828054610ab390611a41565b8015610b005780601f10610ad557610100808354040283529160200191610b00565b820191906000526020600020905b815481529060010190602001808311610ae357829003601f168201915b5050505050905090565b610b1261102e565b73ffffffffffffffffffffffffffffffffffffffff168273ffffffffffffffffffffffffffffffffffffffff161415610b77576040517fb06307db00000000000000000000000000000000000000000000000000000000815260040160405180910390fd5b80610b80610f90565b6007016000610b8d61102e565b73ffffffffffffffffffffffffffffffffffffffff1673ffffffffffffffffffffffffffffffffffffffff16815260200190815260200160002060008473ffffffffffffffffffffffffffffffffffffffff1673ffffffffffffffffffffffffffffffffffffffff16815260200190815260200160002060006101000a81548160ff0219169083151502179055508173ffffffffffffffffffffffffffffffffffffffff16610c3a61102e565b73ffffffffffffffffffffffffffffffffffffffff167f17307eab39ab6107e8899845ad3d59bd9653f200f220920489ca2b5937696c3183604051610c7f9190611503565b60405180910390a35050565b610c96848484610620565b60008373ffffffffffffffffffffffffffffffffffffffff163b14610cf857610cc1848484846111fb565b610cf7576040517fd1a57ed600000000000000000000000000000000000000000000000000000000815260040160405180910390fd5b5b50505050565b6060610d0982610fbd565b610d3f576040517fa14c4b5000000000000000000000000000000000000000000000000000000000815260040160405180910390fd5b6000610d4961135b565b90506000610d55610f90565b6016018054610d6390611a41565b80601f0160208091040260200160405190810160405280929190818152602001828054610d8f90611a41565b8015610ddc5780601f10610db157610100808354040283529160200191610ddc565b820191906000526020600020905b815481529060010190602001808311610dbf57829003601f168201915b50505050509050610deb610f90565b60130160029054906101000a900460ff16610e9d57610e08610f90565b6015018054610e1690611a41565b80601f0160208091040260200160405190810160405280929190818152602001828054610e4290611a41565b8015610e8f5780601f10610e6457610100808354040283529160200191610e8f565b820191906000526020600020905b815481529060010190602001808311610e7257829003601f168201915b505050505092505050610eee565b600082511415610ebc5760405180602001604052806000815250610ee9565b81610ec6856113f6565b82604051602001610ed993929190611aaf565b6040516020818303038152906040525b925050505b919050565b6000610efd610f90565b60070160008473ffffffffffffffffffffffffffffffffffffffff1673ffffffffffffffffffffffffffffffffffffffff16815260200190815260200160002060008373ffffffffffffffffffffffffffffffffffffffff1673ffffffffffffffffffffffffffffffffffffffff16815260200190815260200160002060009054906101000a900460ff16905092915050565b6000807f2569078dfb4b0305704d3008e7403993ae9601b85f7ae5e742de3de8f8011c4090508091505090565b600081610fc8611036565b11158015610fe05750610fd9610f90565b6000015482105b8015611027575060007c010000000000000000000000000000000000000000000000000000000061100f610f90565b60040160008581526020019081526020016000205416145b9050919050565b600033905090565b60006001905090565b6000808290508061104e611036565b116110f15761105b610f90565b600001548110156110f0576000611070610f90565b600401600083815260200190815260200160002054905060007c0100000000000000000000000000000000000000000000000000000000821614156110ee575b60008114156110e4576110c1610f90565b6004016000836001900393508381526020019081526020016000205490506110b0565b8092505050611123565b505b5b6040517fdf2d9b4200000000000000000000000000000000000000000000000000000000815260040160405180910390fd5b919050565b6000806000611135610f90565b600601600085815260200190815260200160002090508092508254915050915091565b600073ffffffffffffffffffffffffffffffffffffffff8316925073ffffffffffffffffffffffffffffffffffffffff821691508382148383141790509392505050565b50505050565b60008060e883901c905060e86111b9868684611446565b62ffffff16901b9150509392505050565b600073ffffffffffffffffffffffffffffffffffffffff83169250814260a01b178317905092915050565b50505050565b60008373ffffffffffffffffffffffffffffffffffffffff1663150b7a0261122161102e565b8786866040518563ffffffff1660e01b81526004016112439493929190611b35565b602060405180830381600087803b15801561125d57600080fd5b505af192505050801561128e57506040513d601f19601f8201168201806040525081019061128b9190611b96565b60015b611308573d80600081146112be576040519150601f19603f3d011682016040523d82523d6000602084013e6112c3565b606091505b50600081511415611300576040517fd1a57ed600000000000000000000000000000000000000000000000000000000815260040160405180910390fd5b805181602001fd5b63150b7a0260e01b7bffffffffffffffffffffffffffffffffffffffffffffffffffffffff1916817bffffffffffffffffffffffffffffffffffffffffffffffffffffffff191614915050949350505050565b6060611365610f90565b601401805461137390611a41565b80601f016020809104026020016040519081016040528092919081815260200182805461139f90611a41565b80156113ec5780601f106113c1576101008083540402835291602001916113ec565b820191906000526020600020905b8154815290600101906020018083116113cf57829003601f168201915b5050505050905090565b606060806040510190508060405280825b60011561143257600183039250600a81066030018353600a810490508061142d57611432565b611407565b508181036020830392508083525050919050565b60009392505050565b6000604051905090565b600080fd5b600080fd5b60007fffffffff0000000000000000000000000000000000000000000000000000000082169050919050565b61149881611463565b81146114a357600080fd5b50565b6000813590506114b58161148f565b92915050565b6000602082840312156114d1576114d0611459565b5b60006114df848285016114a6565b91505092915050565b60008115159050919050565b6114fd816114e8565b82525050565b600060208201905061151860008301846114f4565b92915050565b600081519050919050565b600082825260208201905092915050565b60005b8381101561155857808201518184015260208101905061153d565b83811115611567576000848401525b50505050565b6000601f19601f8301169050919050565b60006115898261151e565b6115938185611529565b93506115a381856020860161153a565b6115ac8161156d565b840191505092915050565b600060208201905081810360008301526115d1818461157e565b905092915050565b6000819050919050565b6115ec816115d9565b81146115f757600080fd5b50565b600081359050611609816115e3565b92915050565b60006020828403121561162557611624611459565b5b6000611633848285016115fa565b91505092915050565b600073ffffffffffffffffffffffffffffffffffffffff82169050919050565b60006116678261163c565b9050919050565b6116778161165c565b82525050565b6000602082019050611692600083018461166e565b92915050565b6116a18161165c565b81146116ac57600080fd5b50565b6000813590506116be81611698565b92915050565b600080604083850312156116db576116da611459565b5b60006116e9858286016116af565b92505060206116fa858286016115fa565b9150509250929050565b61170d816115d9565b82525050565b60006020820190506117286000830184611704565b92915050565b60008060006060848603121561174757611746611459565b5b6000611755868287016116af565b9350506020611766868287016116af565b9250506040611777868287016115fa565b9150509250925092565b60006020828403121561179757611796611459565b5b60006117a5848285016116af565b91505092915050565b6117b7816114e8565b81146117c257600080fd5b50565b6000813590506117d4816117ae565b92915050565b600080604083850312156117f1576117f0611459565b5b60006117ff858286016116af565b9250506020611810858286016117c5565b9150509250929050565b600080fd5b600080fd5b7f4e487b7100000000000000000000000000000000000000000000000000000000600052604160045260246000fd5b61185c8261156d565b810181811067ffffffffffffffff8211171561187b5761187a611824565b5b80604052505050565b600061188e61144f565b905061189a8282611853565b919050565b600067ffffffffffffffff8211156118ba576118b9611824565b5b6118c38261156d565b9050602081019050919050565b82818337600083830152505050565b60006118f26118ed8461189f565b611884565b90508281526020810184848401111561190e5761190d61181f565b5b6119198482856118d0565b509392505050565b600082601f8301126119365761193561181a565b5b81356119468482602086016118df565b91505092915050565b6000806000806080858703121561196957611968611459565b5b6000611977878288016116af565b9450506020611988878288016116af565b9350506040611999878288016115fa565b925050606085013567ffffffffffffffff8111156119ba576119b961145e565b5b6119c687828801611921565b91505092959194509250565b600080604083850312156119e9576119e8611459565b5b60006119f7858286016116af565b9250506020611a08858286016116af565b9150509250929050565b7f4e487b7100000000000000000000000000000000000000000000000000000000600052602260045260246000fd5b60006002820490506001821680611a5957607f821691505b60208210811415611a6d57611a6c611a12565b5b50919050565b600081905092915050565b6000611a898261151e565b611a938185611a73565b9350611aa381856020860161153a565b80840191505092915050565b6000611abb8286611a7e565b9150611ac78285611a7e565b9150611ad38284611a7e565b9150819050949350505050565b600081519050919050565b600082825260208201905092915050565b6000611b0782611ae0565b611b118185611aeb565b9350611b2181856020860161153a565b611b2a8161156d565b840191505092915050565b6000608082019050611b4a600083018761166e565b611b57602083018661166e565b611b646040830185611704565b8181036060830152611b768184611afc565b905095945050505050565b600081519050611b908161148f565b92915050565b600060208284031215611bac57611bab611459565b5b6000611bba84828501611b81565b9150509291505056fea2646970667358221220ebaef4fde594de6af06d2ad935ddd142c7595b3fc240771f2bc1ce812f9b887964736f6c63430008090033",
  "linkReferences": {},
  "deployedLinkReferences": {}
}