{
  "_format": "hh-sol-artifact-1",
  "contractName": "CustomERC721A",
  "sourceName": "contracts/flattened.sol",
  "abi": [
    {
      "inputs": [],
      "name": "ApprovalCallerNotOwnerNorApproved",
      "type": "error"
    },
    {
      "inputs": [],
      "name": "ApprovalQueryForNonexistentToken",
      "type": "error"
    },
    {
      "inputs": [],
      "name": "ApproveToCaller",
      "type": "error"
    },
    {
      "inputs": [],
      "name": "BalanceQueryForZeroAddress",
      "type": "error"
    },
    {
      "inputs": [],
      "name": "CollectionSizeZero",
      "type": "error"
    },
    {
      "inputs": [],
      "name": "ExceedsMaximumBatchSize",
      "type": "error"
    },
    {
      "inputs": [],
      "name": "MaximumBatchSizeZero",
      "type": "error"
    },
    {
      "inputs": [],
      "name": "MintERC2309QuantityExceedsLimit",
      "type": "error"
    },
    {
      "inputs": [],
      "name": "MintToZeroAddress",
      "type": "error"
    },
    {
      "inputs": [],
      "name": "MintZeroQuantity",
      "type": "error"
    },
    {
      "inputs": [],
      "name": "OwnerQueryForNonexistentToken",
      "type": "error"
    },
    {
      "inputs": [],
      "name": "OwnershipNotInitializedForExtraData",
      "type": "error"
    },
    {
      "inputs": [],
      "name": "TransferCallerNotOwnerNorApproved",
      "type": "error"
    },
    {
      "inputs": [],
      "name": "TransferFromIncorrectOwner",
      "type": "error"
    },
    {
      "inputs": [],
      "name": "TransferToNonERC721ReceiverImplementer",
      "type": "error"
    },
    {
      "inputs": [],
      "name": "TransferToZeroAddress",
      "type": "error"
    },
    {
      "inputs": [],
      "name": "URIQueryForNonexistentToken",
      "type": "error"
    },
    {
      "anonymous": false,
      "inputs": [
        {
          "indexed": true,
          "internalType": "address",
          "name": "owner",
          "type": "address"
        },
        {
          "indexed": true,
          "internalType": "address",
          "name": "approved",
          "type": "address"
        },
        {
          "indexed": true,
          "internalType": "uint256",
          "name": "tokenId",
          "type": "uint256"
        }
      ],
      "name": "Approval",
      "type": "event"
    },
    {
      "anonymous": false,
      "inputs": [
        {
          "indexed": true,
          "internalType": "address",
          "name": "owner",
          "type": "address"
        },
        {
          "indexed": true,
          "internalType": "address",
          "name": "operator",
          "type": "address"
        },
        {
          "indexed": false,
          "internalType": "bool",
          "name": "approved",
          "type": "bool"
        }
      ],
      "name": "ApprovalForAll",
      "type": "event"
    },
    {
      "anonymous": false,
      "inputs": [
        {
          "indexed": true,
          "internalType": "uint256",
          "name": "fromTokenId",
          "type": "uint256"
        },
        {
          "indexed": false,
          "internalType": "uint256",
          "name": "toTokenId",
          "type": "uint256"
        },
        {
          "indexed": true,
          "internalType": "address",
          "name": "from",
          "type": "address"
        },
        {
          "indexed": true,
          "internalType": "address",
          "name": "to",
          "type": "address"
        }
      ],
      "name": "ConsecutiveTransfer",
      "type": "event"
    },
    {
      "anonymous": false,
      "inputs": [
        {
          "indexed": false,
          "internalType": "uint8",
          "name": "version",
          "type": "uint8"
        }
      ],
      "name": "Initialized",
      "type": "event"
    },
    {
      "anonymous": false,
      "inputs": [
        {
          "indexed": true,
          "internalType": "address",
          "name": "previousOwner",
          "type": "address"
        },
        {
          "indexed": true,
          "internalType": "address",
          "name": "newOwner",
          "type": "address"
        }
      ],
      "name": "OwnershipTransferred",
      "type": "event"
    },
    {
      "anonymous": false,
      "inputs": [
        {
          "indexed": true,
          "internalType": "address",
          "name": "from",
          "type": "address"
        },
        {
          "indexed": true,
          "internalType": "address",
          "name": "to",
          "type": "address"
        },
        {
          "indexed": true,
          "internalType": "uint256",
          "name": "tokenId",
          "type": "uint256"
        }
      ],
      "name": "Transfer",
      "type": "event"
    },
    {
      "inputs": [
        {
          "internalType": "bool",
          "name": "status",
          "type": "bool"
        }
      ],
      "name": "activePreSale",
      "outputs": [],
      "stateMutability": "nonpayable",
      "type": "function"
    },
    {
      "inputs": [
        {
          "internalType": "bool",
          "name": "status",
          "type": "bool"
        }
      ],
      "name": "activePublicSale",
      "outputs": [],
      "stateMutability": "nonpayable",
      "type": "function"
    },
    {
      "inputs": [
        {
          "internalType": "address",
          "name": "to",
          "type": "address"
        },
        {
          "internalType": "uint256",
          "name": "tokenId",
          "type": "uint256"
        }
      ],
      "name": "approve",
      "outputs": [],
      "stateMutability": "nonpayable",
      "type": "function"
    },
    {
      "inputs": [
        {
          "internalType": "address",
          "name": "owner",
          "type": "address"
        }
      ],
      "name": "balanceOf",
      "outputs": [
        {
          "internalType": "uint256",
          "name": "",
          "type": "uint256"
        }
      ],
      "stateMutability": "view",
      "type": "function"
    },
    {
      "inputs": [
        {
          "internalType": "uint256",
          "name": "tokenId",
          "type": "uint256"
        }
      ],
      "name": "getApproved",
      "outputs": [
        {
          "internalType": "address",
          "name": "",
          "type": "address"
        }
      ],
      "stateMutability": "view",
      "type": "function"
    },
    {
      "inputs": [],
      "name": "getProfits",
      "outputs": [],
      "stateMutability": "nonpayable",
      "type": "function"
    },
    {
      "inputs": [],
      "name": "initialize",
      "outputs": [],
      "stateMutability": "nonpayable",
      "type": "function"
    },
    {
      "inputs": [
        {
          "internalType": "address",
          "name": "owner",
          "type": "address"
        },
        {
          "internalType": "address",
          "name": "operator",
          "type": "address"
        }
      ],
      "name": "isApprovedForAll",
      "outputs": [
        {
          "internalType": "bool",
          "name": "",
          "type": "bool"
        }
      ],
      "stateMutability": "view",
      "type": "function"
    },
    {
      "inputs": [],
      "name": "name",
      "outputs": [
        {
          "internalType": "string",
          "name": "",
          "type": "string"
        }
      ],
      "stateMutability": "view",
      "type": "function"
    },
    {
      "inputs": [],
      "name": "owner",
      "outputs": [
        {
          "internalType": "address",
          "name": "",
          "type": "address"
        }
      ],
      "stateMutability": "view",
      "type": "function"
    },
    {
      "inputs": [
        {
          "internalType": "uint256",
          "name": "tokenId",
          "type": "uint256"
        }
      ],
      "name": "ownerOf",
      "outputs": [
        {
          "internalType": "address",
          "name": "",
          "type": "address"
        }
      ],
      "stateMutability": "view",
      "type": "function"
    },
    {
      "inputs": [
        {
          "internalType": "uint256",
          "name": "quantity",
          "type": "uint256"
        }
      ],
      "name": "preSaleMint",
      "outputs": [],
      "stateMutability": "payable",
      "type": "function"
    },
    {
      "inputs": [
        {
          "internalType": "uint256",
          "name": "quantity",
          "type": "uint256"
        }
      ],
      "name": "publicSaleMint",
      "outputs": [],
      "stateMutability": "payable",
      "type": "function"
    },
    {
      "inputs": [],
      "name": "renounceOwnership",
      "outputs": [],
      "stateMutability": "nonpayable",
      "type": "function"
    },
    {
      "inputs": [
        {
          "internalType": "address",
          "name": "from",
          "type": "address"
        },
        {
          "internalType": "address",
          "name": "to",
          "type": "address"
        },
        {
          "internalType": "uint256",
          "name": "tokenId",
          "type": "uint256"
        }
      ],
      "name": "safeTransferFrom",
      "outputs": [],
      "stateMutability": "nonpayable",
      "type": "function"
    },
    {
      "inputs": [
        {
          "internalType": "address",
          "name": "from",
          "type": "address"
        },
        {
          "internalType": "address",
          "name": "to",
          "type": "address"
        },
        {
          "internalType": "uint256",
          "name": "tokenId",
          "type": "uint256"
        },
        {
          "internalType": "bytes",
          "name": "_data",
          "type": "bytes"
        }
      ],
      "name": "safeTransferFrom",
      "outputs": [],
      "stateMutability": "nonpayable",
      "type": "function"
    },
    {
      "inputs": [
        {
          "internalType": "address",
          "name": "operator",
          "type": "address"
        },
        {
          "internalType": "bool",
          "name": "approved",
          "type": "bool"
        }
      ],
      "name": "setApprovalForAll",
      "outputs": [],
      "stateMutability": "nonpayable",
      "type": "function"
    },
    {
      "inputs": [
        {
          "internalType": "string",
          "name": "baseURI_",
          "type": "string"
        }
      ],
      "name": "setBaseURI",
      "outputs": [],
      "stateMutability": "nonpayable",
      "type": "function"
    },
    {
      "inputs": [
        {
          "internalType": "uint256",
          "name": "limit",
          "type": "uint256"
        }
      ],
      "name": "setPreSaleLimit",
      "outputs": [],
      "stateMutability": "nonpayable",
      "type": "function"
    },
    {
      "inputs": [
        {
          "internalType": "uint256",
          "name": "price",
          "type": "uint256"
        }
      ],
      "name": "setPreSalePrice",
      "outputs": [],
      "stateMutability": "nonpayable",
      "type": "function"
    },
    {
      "inputs": [
        {
          "internalType": "uint256",
          "name": "quantity",
          "type": "uint256"
        }
      ],
      "name": "setPreSaleQuantity",
      "outputs": [],
      "stateMutability": "nonpayable",
      "type": "function"
    },
    {
      "inputs": [
        {
          "internalType": "uint256",
          "name": "limit",
          "type": "uint256"
        }
      ],
      "name": "setPublicSaleLimit",
      "outputs": [],
      "stateMutability": "nonpayable",
      "type": "function"
    },
    {
      "inputs": [
        {
          "internalType": "uint256",
          "name": "price",
          "type": "uint256"
        }
      ],
      "name": "setPublicSalePrice",
      "outputs": [],
      "stateMutability": "nonpayable",
      "type": "function"
    },
    {
      "inputs": [
        {
          "internalType": "uint256",
          "name": "quantity",
          "type": "uint256"
        }
      ],
      "name": "setPublicSaleQuantity",
      "outputs": [],
      "stateMutability": "nonpayable",
      "type": "function"
    },
    {
      "inputs": [
        {
          "internalType": "bytes4",
          "name": "interfaceId",
          "type": "bytes4"
        }
      ],
      "name": "supportsInterface",
      "outputs": [
        {
          "internalType": "bool",
          "name": "",
          "type": "bool"
        }
      ],
      "stateMutability": "view",
      "type": "function"
    },
    {
      "inputs": [],
      "name": "symbol",
      "outputs": [
        {
          "internalType": "string",
          "name": "",
          "type": "string"
        }
      ],
      "stateMutability": "view",
      "type": "function"
    },
    {
      "inputs": [
        {
          "internalType": "uint256",
          "name": "tokenId",
          "type": "uint256"
        }
      ],
      "name": "tokenURI",
      "outputs": [
        {
          "internalType": "string",
          "name": "",
          "type": "string"
        }
      ],
      "stateMutability": "view",
      "type": "function"
    },
    {
      "inputs": [],
      "name": "totalSupply",
      "outputs": [
        {
          "internalType": "uint256",
          "name": "",
          "type": "uint256"
        }
      ],
      "stateMutability": "view",
      "type": "function"
    },
    {
      "inputs": [
        {
          "internalType": "address",
          "name": "from",
          "type": "address"
        },
        {
          "internalType": "address",
          "name": "to",
          "type": "address"
        },
        {
          "internalType": "uint256",
          "name": "tokenId",
          "type": "uint256"
        }
      ],
      "name": "transferFrom",
      "outputs": [],
      "stateMutability": "nonpayable",
      "type": "function"
    },
    {
      "inputs": [
        {
          "internalType": "address",
          "name": "newOwner",
          "type": "address"
        }
      ],
      "name": "transferOwnership",
      "outputs": [],
      "stateMutability": "nonpayable",
      "type": "function"
    }
  ],
  "bytecode": "0x608060405234801561001057600080fd5b50613a6d806100206000396000f3fe6080604052600436106101cd5760003560e01c806370a08231116100f757806395d89b4111610095578063b88d4fde11610064578063b88d4fde14610604578063c87b56dd1461062d578063e985e9c51461066a578063f2fde38b146106a7576101cd565b806395d89b411461056b57806396b1fea114610596578063a22cb465146105bf578063b3ab66b0146105e8576101cd565b8063791a2519116100d1578063791a2519146104d75780637d7eee42146105005780638129fc1c146105295780638da5cb5b14610540576101cd565b806370a0823114610467578063715018a6146104a45780637835c635146104bb576101cd565b806339d82c591161016f57806355f804b31161013e57806355f804b3146103af57806358a64492146103d85780636352211e146104015780636c9803f61461043e576101cd565b806339d82c591461031d5780633ad152581461034657806342842e0e1461035d5780634b6a20eb14610386576101cd565b8063095ea7b3116101ab578063095ea7b3146102775780630b1f703c146102a057806318160ddd146102c957806323b872dd146102f4576101cd565b806301ffc9a7146101d257806306fdde031461020f578063081812fc1461023a575b600080fd5b3480156101de57600080fd5b506101f960048036038101906101f49190612981565b6106d0565b60405161020691906129c9565b60405180910390f35b34801561021b57600080fd5b50610224610762565b6040516102319190612a7d565b60405180910390f35b34801561024657600080fd5b50610261600480360381019061025c9190612ad5565b6107fd565b60405161026e9190612b43565b60405180910390f35b34801561028357600080fd5b5061029e60048036038101906102999190612b8a565b610885565b005b3480156102ac57600080fd5b506102c760048036038101906102c29190612ad5565b6109d2565b005b3480156102d557600080fd5b506102de610a30565b6040516102eb9190612bd9565b60405180910390f35b34801561030057600080fd5b5061031b60048036038101906103169190612bf4565b610a59565b005b34801561032957600080fd5b50610344600480360381019061033f9190612ad5565b610db4565b005b34801561035257600080fd5b5061035b610e12565b005b34801561036957600080fd5b50610384600480360381019061037f9190612bf4565b610ecc565b005b34801561039257600080fd5b506103ad60048036038101906103a89190612ad5565b610eec565b005b3480156103bb57600080fd5b506103d660048036038101906103d19190612d7c565b610f4a565b005b3480156103e457600080fd5b506103ff60048036038101906103fa9190612ad5565b610f75565b005b34801561040d57600080fd5b5061042860048036038101906104239190612ad5565b610fd3565b6040516104359190612b43565b60405180910390f35b34801561044a57600080fd5b5061046560048036038101906104609190612df1565b610fe5565b005b34801561047357600080fd5b5061048e60048036038101906104899190612e1e565b611013565b60405161049b9190612bd9565b60405180910390f35b3480156104b057600080fd5b506104b96110d5565b005b6104d560048036038101906104d09190612ad5565b6110e9565b005b3480156104e357600080fd5b506104fe60048036038101906104f99190612ad5565b611320565b005b34801561050c57600080fd5b5061052760048036038101906105229190612ad5565b61137e565b005b34801561053557600080fd5b5061053e6113dc565b005b34801561054c57600080fd5b506105556116c5565b6040516105629190612b43565b60405180910390f35b34801561057757600080fd5b506105806116ef565b60405161058d9190612a7d565b60405180910390f35b3480156105a257600080fd5b506105bd60048036038101906105b89190612df1565b61178a565b005b3480156105cb57600080fd5b506105e660048036038101906105e19190612e4b565b6117b8565b005b61060260048036038101906105fd9190612ad5565b611939565b005b34801561061057600080fd5b5061062b60048036038101906106269190612f2c565b611b70565b005b34801561063957600080fd5b50610654600480360381019061064f9190612ad5565b611be3565b6040516106619190612a7d565b60405180910390f35b34801561067657600080fd5b50610691600480360381019061068c9190612faf565b611c82565b60405161069e91906129c9565b60405180910390f35b3480156106b357600080fd5b506106ce60048036038101906106c99190612e1e565b611d1f565b005b60006301ffc9a760e01b827bffffffffffffffffffffffffffffffffffffffffffffffffffffffff1916148061072b57506380ac58cd60e01b827bffffffffffffffffffffffffffffffffffffffffffffffffffffffff1916145b8061075b5750635b5e139f60e01b827bffffffffffffffffffffffffffffffffffffffffffffffffffffffff1916145b9050919050565b606061076c611da3565b600201805461077a9061301e565b80601f01602080910402602001604051908101604052809291908181526020018280546107a69061301e565b80156107f35780601f106107c8576101008083540402835291602001916107f3565b820191906000526020600020905b8154815290600101906020018083116107d657829003601f168201915b5050505050905090565b600061080882611dd0565b61083e576040517fcf4700e400000000000000000000000000000000000000000000000000000000815260040160405180910390fd5b610846611da3565b600601600083815260200190815260200160002060000160009054906101000a900473ffffffffffffffffffffffffffffffffffffffff169050919050565b600061089082610fd3565b90508073ffffffffffffffffffffffffffffffffffffffff166108b1611e41565b73ffffffffffffffffffffffffffffffffffffffff1614610914576108dd816108d8611e41565b611c82565b610913576040517fcfb3b94200000000000000000000000000000000000000000000000000000000815260040160405180910390fd5b5b8261091d611da3565b600601600084815260200190815260200160002060000160006101000a81548173ffffffffffffffffffffffffffffffffffffffff021916908373ffffffffffffffffffffffffffffffffffffffff160217905550818373ffffffffffffffffffffffffffffffffffffffff168273ffffffffffffffffffffffffffffffffffffffff167f8c5be1e5ebec7d5bd14f71427d1e84f3dd0314c0f7b2291e5b200ac8c7c3b92560405160405180910390a4505050565b6109da611e49565b60008111610a1d576040517f08c379a0000000000000000000000000000000000000000000000000000000008152600401610a149061309c565b60405180910390fd5b80610a26611da3565b6008018190555050565b6000610a3a611ec7565b610a42611da3565b60010154610a4e611da3565b600001540303905090565b6000610a6482611ecc565b90508373ffffffffffffffffffffffffffffffffffffffff168173ffffffffffffffffffffffffffffffffffffffff1614610acb576040517fa114810000000000000000000000000000000000000000000000000000000000815260040160405180910390fd5b600080610ad784611fb5565b91509150610aed8187610ae8611e41565b611fe5565b610b3957610b0286610afd611e41565b611c82565b610b38576040517f59c896be00000000000000000000000000000000000000000000000000000000815260040160405180910390fd5b5b600073ffffffffffffffffffffffffffffffffffffffff168573ffffffffffffffffffffffffffffffffffffffff161415610ba0576040517fea553b3400000000000000000000000000000000000000000000000000000000815260040160405180910390fd5b610bad8686866001612029565b8015610bb857600082555b610bc0611da3565b60050160008773ffffffffffffffffffffffffffffffffffffffff1673ffffffffffffffffffffffffffffffffffffffff168152602001908152602001600020600081546001900391905081905550610c17611da3565b60050160008673ffffffffffffffffffffffffffffffffffffffff1673ffffffffffffffffffffffffffffffffffffffff1681526020019081526020016000206000815460010191905081905550610c9885610c7488888761202f565b7c020000000000000000000000000000000000000000000000000000000017612057565b610ca0611da3565b60040160008681526020019081526020016000208190555060007c020000000000000000000000000000000000000000000000000000000084161415610d445760006001850190506000610cf2611da3565b6004016000838152602001908152602001600020541415610d4257610d15611da3565b600001548114610d415783610d28611da3565b6004016000838152602001908152602001600020819055505b5b505b838573ffffffffffffffffffffffffffffffffffffffff168773ffffffffffffffffffffffffffffffffffffffff167fddf252ad1be2c89b69c2b068fc378daa952ba7f163c4a11628f55a4df523b3ef60405160405180910390a4610dac8686866001612082565b505050505050565b610dbc611e49565b60008111610dff576040517f08c379a0000000000000000000000000000000000000000000000000000000008152600401610df69061309c565b60405180910390fd5b80610e08611da3565b6009018190555050565b610e1a611e49565b6000803373ffffffffffffffffffffffffffffffffffffffff1647604051610e41906130ed565b60006040518083038185875af1925050503d8060008114610e7e576040519150601f19603f3d011682016040523d82523d6000602084013e610e83565b606091505b509150915081610ec8576040517f08c379a0000000000000000000000000000000000000000000000000000000008152600401610ebf9061314e565b60405180910390fd5b5050565b610ee783838360405180602001604052806000815250611b70565b505050565b610ef4611e49565b60008111610f37576040517f08c379a0000000000000000000000000000000000000000000000000000000008152600401610f2e906131ba565b60405180910390fd5b80610f40611da3565b600c018190555050565b610f52611e49565b80610f5b611da3565b6012019080519060200190610f71929190612872565b5050565b610f7d611e49565b60008111610fc0576040517f08c379a0000000000000000000000000000000000000000000000000000000008152600401610fb7906131ba565b60405180910390fd5b80610fc9611da3565b600b018190555050565b6000610fde82611ecc565b9050919050565b610fed611e49565b80610ff6611da3565b60110160016101000a81548160ff02191690831515021790555050565b60008073ffffffffffffffffffffffffffffffffffffffff168273ffffffffffffffffffffffffffffffffffffffff16141561107b576040517f8f4eb60400000000000000000000000000000000000000000000000000000000815260040160405180910390fd5b67ffffffffffffffff61108c611da3565b60050160008473ffffffffffffffffffffffffffffffffffffffff1673ffffffffffffffffffffffffffffffffffffffff16815260200190815260200160002054169050919050565b6110dd611e49565b6110e76000612088565b565b6110f1611da3565b60110160019054906101000a900460ff16611141576040517f08c379a000000000000000000000000000000000000000000000000000000000815260040161113890613226565b60405180910390fd5b8061114a611da3565b600f01546111589190613275565b611160611da3565b600b015410156111a5576040517f08c379a000000000000000000000000000000000000000000000000000000000815260040161119c90613317565b60405180910390fd5b6111ad611da3565b60080154816111ba611da3565b60130160003373ffffffffffffffffffffffffffffffffffffffff1673ffffffffffffffffffffffffffffffffffffffff168152602001908152602001600020546112059190613275565b1115611246576040517f08c379a000000000000000000000000000000000000000000000000000000000815260040161123d90613383565b60405180910390fd5b6000611250611da3565b600e01548261125f91906133a3565b90508034146112a3576040517f08c379a000000000000000000000000000000000000000000000000000000000815260040161129a90613449565b60405180910390fd5b6112ad338361214e565b816112b6611da3565b600f0160008282540192505081905550816112cf611da3565b60130160003373ffffffffffffffffffffffffffffffffffffffff1673ffffffffffffffffffffffffffffffffffffffff168152602001908152602001600020600082825401925050819055505050565b611328611e49565b6000811161136b576040517f08c379a0000000000000000000000000000000000000000000000000000000008152600401611362906134b5565b60405180910390fd5b80611374611da3565b600d018190555050565b611386611e49565b600081116113c9576040517f08c379a00000000000000000000000000000000000000000000000000000000081526004016113c0906134b5565b60405180910390fd5b806113d2611da3565b600e018190555050565b6113e4612330565b60000160019054906101000a900460ff1661141857611401612330565b60000160009054906101000a900460ff1615611421565b61142061235d565b5b611460576040517f08c379a000000000000000000000000000000000000000000000000000000000815260040161145790613547565b60405180910390fd5b600061146a612330565b60000160019054906101000a900460ff1615905080156114cd57600161148e612330565b60000160016101000a81548160ff02191690831515021790555060016114b2612330565b60000160006101000a81548160ff0219169083151502179055505b600060018054906101000a900460ff161590508080156114fe575060018060009054906101000a900460ff1660ff16105b8061152c575061150d30612374565b15801561152b575060018060009054906101000a900460ff1660ff16145b5b61156b576040517f08c379a0000000000000000000000000000000000000000000000000000000008152600401611562906135d9565b60405180910390fd5b60018060006101000a81548160ff021916908360ff16021790555080156115a75760018060016101000a81548160ff0219169083151502179055505b6116356040518060400160405280600a81526020017f4d65726b6c6554726565000000000000000000000000000000000000000000008152506040518060400160405280600281526020017f4d5400000000000000000000000000000000000000000000000000000000000081525066b1a2bc2ec50000666a94d74f4300006101f46101c2600a6005612397565b61163d612409565b80156116965760006001806101000a81548160ff0219169083151502179055507f7f26b83ff96e1f2b6a682f133852f6798a09c465da95921460cefb3847402498600160405161168d919061364b565b60405180910390a15b5080156116c25760006116a7612330565b60000160016101000a81548160ff0219169083151502179055505b50565b6000603460009054906101000a900473ffffffffffffffffffffffffffffffffffffffff16905090565b60606116f9611da3565b60030180546117079061301e565b80601f01602080910402602001604051908101604052809291908181526020018280546117339061301e565b80156117805780601f1061175557610100808354040283529160200191611780565b820191906000526020600020905b81548152906001019060200180831161176357829003601f168201915b5050505050905090565b611792611e49565b8061179b611da3565b60110160006101000a81548160ff02191690831515021790555050565b6117c0611e41565b73ffffffffffffffffffffffffffffffffffffffff168273ffffffffffffffffffffffffffffffffffffffff161415611825576040517fb06307db00000000000000000000000000000000000000000000000000000000815260040160405180910390fd5b8061182e611da3565b600701600061183b611e41565b73ffffffffffffffffffffffffffffffffffffffff1673ffffffffffffffffffffffffffffffffffffffff16815260200190815260200160002060008473ffffffffffffffffffffffffffffffffffffffff1673ffffffffffffffffffffffffffffffffffffffff16815260200190815260200160002060006101000a81548160ff0219169083151502179055508173ffffffffffffffffffffffffffffffffffffffff166118e8611e41565b73ffffffffffffffffffffffffffffffffffffffff167f17307eab39ab6107e8899845ad3d59bd9653f200f220920489ca2b5937696c318360405161192d91906129c9565b60405180910390a35050565b611941611da3565b60110160009054906101000a900460ff16611991576040517f08c379a0000000000000000000000000000000000000000000000000000000008152600401611988906136b2565b60405180910390fd5b8061199a611da3565b601001546119a89190613275565b6119b0611da3565b600c015410156119f5576040517f08c379a00000000000000000000000000000000000000000000000000000000081526004016119ec90613317565b60405180910390fd5b6119fd611da3565b6009015481611a0a611da3565b60140160003373ffffffffffffffffffffffffffffffffffffffff1673ffffffffffffffffffffffffffffffffffffffff16815260200190815260200160002054611a559190613275565b1115611a96576040517f08c379a0000000000000000000000000000000000000000000000000000000008152600401611a8d90613383565b60405180910390fd5b6000611aa0611da3565b600d015482611aaf91906133a3565b9050803414611af3576040517f08c379a0000000000000000000000000000000000000000000000000000000008152600401611aea90613449565b60405180910390fd5b611afd338361214e565b81611b06611da3565b6010016000828254019250508190555081611b1f611da3565b60140160003373ffffffffffffffffffffffffffffffffffffffff1673ffffffffffffffffffffffffffffffffffffffff168152602001908152602001600020600082825401925050819055505050565b611b7b848484610a59565b60008373ffffffffffffffffffffffffffffffffffffffff163b14611bdd57611ba684848484612460565b611bdc576040517fd1a57ed600000000000000000000000000000000000000000000000000000000815260040160405180910390fd5b5b50505050565b6060611bee82611dd0565b611c24576040517fa14c4b5000000000000000000000000000000000000000000000000000000000815260040160405180910390fd5b6000611c2e6125c0565b9050600081511415611c4f5760405180602001604052806000815250611c7a565b80611c598461265b565b604051602001611c6a92919061370e565b6040516020818303038152906040525b915050919050565b6000611c8c611da3565b60070160008473ffffffffffffffffffffffffffffffffffffffff1673ffffffffffffffffffffffffffffffffffffffff16815260200190815260200160002060008373ffffffffffffffffffffffffffffffffffffffff1673ffffffffffffffffffffffffffffffffffffffff16815260200190815260200160002060009054906101000a900460ff16905092915050565b611d27611e49565b600073ffffffffffffffffffffffffffffffffffffffff168173ffffffffffffffffffffffffffffffffffffffff161415611d97576040517f08c379a0000000000000000000000000000000000000000000000000000000008152600401611d8e906137a4565b60405180910390fd5b611da081612088565b50565b6000807f2569078dfb4b0305704d3008e7403993ae9601b85f7ae5e742de3de8f8011c4090508091505090565b600081611ddb611ec7565b11158015611df35750611dec611da3565b6000015482105b8015611e3a575060007c0100000000000000000000000000000000000000000000000000000000611e22611da3565b60040160008581526020019081526020016000205416145b9050919050565b600033905090565b611e516126ab565b73ffffffffffffffffffffffffffffffffffffffff16611e6f6116c5565b73ffffffffffffffffffffffffffffffffffffffff1614611ec5576040517f08c379a0000000000000000000000000000000000000000000000000000000008152600401611ebc90613810565b60405180910390fd5b565b600090565b60008082905080611edb611ec7565b11611f7e57611ee8611da3565b60000154811015611f7d576000611efd611da3565b600401600083815260200190815260200160002054905060007c010000000000000000000000000000000000000000000000000000000082161415611f7b575b6000811415611f7157611f4e611da3565b600401600083600190039350838152602001908152602001600020549050611f3d565b8092505050611fb0565b505b5b6040517fdf2d9b4200000000000000000000000000000000000000000000000000000000815260040160405180910390fd5b919050565b6000806000611fc2611da3565b600601600085815260200190815260200160002090508092508254915050915091565b600073ffffffffffffffffffffffffffffffffffffffff8316925073ffffffffffffffffffffffffffffffffffffffff821691508382148383141790509392505050565b50505050565b60008060e883901c905060e86120468686846126b3565b62ffffff16901b9150509392505050565b600073ffffffffffffffffffffffffffffffffffffffff83169250814260a01b178317905092915050565b50505050565b6000603460009054906101000a900473ffffffffffffffffffffffffffffffffffffffff16905081603460006101000a81548173ffffffffffffffffffffffffffffffffffffffff021916908373ffffffffffffffffffffffffffffffffffffffff1602179055508173ffffffffffffffffffffffffffffffffffffffff168173ffffffffffffffffffffffffffffffffffffffff167f8be0079c531659141344cd1fd0a4f28419497f9722a3daafe3b4186f6b6457e060405160405180910390a35050565b6000612158611da3565b6000015490506000821415612199576040517fb562e8dd00000000000000000000000000000000000000000000000000000000815260040160405180910390fd5b6121a66000848385612029565b600160406001901b1782026121b9611da3565b60050160008573ffffffffffffffffffffffffffffffffffffffff1673ffffffffffffffffffffffffffffffffffffffff1681526020019081526020016000206000828254019250508190555061222683612217600086600061202f565b612220856126bc565b17612057565b61222e611da3565b600401600083815260200190815260200160002081905550600080838301905073ffffffffffffffffffffffffffffffffffffffff85169150828260007fddf252ad1be2c89b69c2b068fc378daa952ba7f163c4a11628f55a4df523b3ef600080a4600183015b8181146122d057808360007fddf252ad1be2c89b69c2b068fc378daa952ba7f163c4a11628f55a4df523b3ef600080a4600181019050612295565b50600082141561230c576040517f2e07630000000000000000000000000000000000000000000000000000000000815260040160405180910390fd5b80612315611da3565b60000181905550505061232b6000848385612082565b505050565b6000807fee151c8401928dc223602bb187aff91b9a56c7cae5476ef1b3287b085a16c85f90508091505090565b6000803090506000813b9050600081149250505090565b6000808273ffffffffffffffffffffffffffffffffffffffff163b119050919050565b61239f612330565b60000160019054906101000a900460ff166123ef576040517f08c379a00000000000000000000000000000000000000000000000000000000081526004016123e6906138a2565b60405180910390fd5b6123ff88888888888888886126cc565b5050505050505050565b60018054906101000a900460ff16612456576040517f08c379a000000000000000000000000000000000000000000000000000000000815260040161244d90613934565b60405180910390fd5b61245e612813565b565b60008373ffffffffffffffffffffffffffffffffffffffff1663150b7a02612486611e41565b8786866040518563ffffffff1660e01b81526004016124a894939291906139a9565b602060405180830381600087803b1580156124c257600080fd5b505af19250505080156124f357506040513d601f19601f820116820180604052508101906124f09190613a0a565b60015b61256d573d8060008114612523576040519150601f19603f3d011682016040523d82523d6000602084013e612528565b606091505b50600081511415612565576040517fd1a57ed600000000000000000000000000000000000000000000000000000000815260040160405180910390fd5b805181602001fd5b63150b7a0260e01b7bffffffffffffffffffffffffffffffffffffffffffffffffffffffff1916817bffffffffffffffffffffffffffffffffffffffffffffffffffffffff191614915050949350505050565b60606125ca611da3565b60120180546125d89061301e565b80601f01602080910402602001604051908101604052809291908181526020018280546126049061301e565b80156126515780601f1061262657610100808354040283529160200191612651565b820191906000526020600020905b81548152906001019060200180831161263457829003601f168201915b5050505050905090565b606060806040510190508060405280825b60011561269757600183039250600a81066030018353600a810490508061269257612697565b61266c565b508181036020830392508083525050919050565b600033905090565b60009392505050565b60006001821460e11b9050919050565b6126d4612330565b60000160019054906101000a900460ff16612724576040517f08c379a000000000000000000000000000000000000000000000000000000000815260040161271b906138a2565b60405180910390fd5b8761272d611da3565b6002019080519060200190612743929190612872565b508661274d611da3565b6003019080519060200190612763929190612872565b508561276d611da3565b600d01819055508461277d611da3565b600e01819055508261278d611da3565b600c01819055508361279d611da3565b600b0181905550806127ad611da3565b60080181905550816127bd611da3565b600901819055506127cc611ec7565b6127d4611da3565b600001819055506127e3611ec7565b6127eb611da3565b600f01819055506127fa611ec7565b612802611da3565b601001819055505050505050505050565b60018054906101000a900460ff16612860576040517f08c379a000000000000000000000000000000000000000000000000000000000815260040161285790613934565b60405180910390fd5b61287061286b6126ab565b612088565b565b82805461287e9061301e565b90600052602060002090601f0160209004810192826128a057600085556128e7565b82601f106128b957805160ff19168380011785556128e7565b828001600101855582156128e7579182015b828111156128e65782518255916020019190600101906128cb565b5b5090506128f491906128f8565b5090565b5b808211156129115760008160009055506001016128f9565b5090565b6000604051905090565b600080fd5b600080fd5b60007fffffffff0000000000000000000000000000000000000000000000000000000082169050919050565b61295e81612929565b811461296957600080fd5b50565b60008135905061297b81612955565b92915050565b6000602082840312156129975761299661291f565b5b60006129a58482850161296c565b91505092915050565b60008115159050919050565b6129c3816129ae565b82525050565b60006020820190506129de60008301846129ba565b92915050565b600081519050919050565b600082825260208201905092915050565b60005b83811015612a1e578082015181840152602081019050612a03565b83811115612a2d576000848401525b50505050565b6000601f19601f8301169050919050565b6000612a4f826129e4565b612a5981856129ef565b9350612a69818560208601612a00565b612a7281612a33565b840191505092915050565b60006020820190508181036000830152612a978184612a44565b905092915050565b6000819050919050565b612ab281612a9f565b8114612abd57600080fd5b50565b600081359050612acf81612aa9565b92915050565b600060208284031215612aeb57612aea61291f565b5b6000612af984828501612ac0565b91505092915050565b600073ffffffffffffffffffffffffffffffffffffffff82169050919050565b6000612b2d82612b02565b9050919050565b612b3d81612b22565b82525050565b6000602082019050612b586000830184612b34565b92915050565b612b6781612b22565b8114612b7257600080fd5b50565b600081359050612b8481612b5e565b92915050565b60008060408385031215612ba157612ba061291f565b5b6000612baf85828601612b75565b9250506020612bc085828601612ac0565b9150509250929050565b612bd381612a9f565b82525050565b6000602082019050612bee6000830184612bca565b92915050565b600080600060608486031215612c0d57612c0c61291f565b5b6000612c1b86828701612b75565b9350506020612c2c86828701612b75565b9250506040612c3d86828701612ac0565b9150509250925092565b600080fd5b600080fd5b7f4e487b7100000000000000000000000000000000000000000000000000000000600052604160045260246000fd5b612c8982612a33565b810181811067ffffffffffffffff82111715612ca857612ca7612c51565b5b80604052505050565b6000612cbb612915565b9050612cc78282612c80565b919050565b600067ffffffffffffffff821115612ce757612ce6612c51565b5b612cf082612a33565b9050602081019050919050565b82818337600083830152505050565b6000612d1f612d1a84612ccc565b612cb1565b905082815260208101848484011115612d3b57612d3a612c4c565b5b612d46848285612cfd565b509392505050565b600082601f830112612d6357612d62612c47565b5b8135612d73848260208601612d0c565b91505092915050565b600060208284031215612d9257612d9161291f565b5b600082013567ffffffffffffffff811115612db057612daf612924565b5b612dbc84828501612d4e565b91505092915050565b612dce816129ae565b8114612dd957600080fd5b50565b600081359050612deb81612dc5565b92915050565b600060208284031215612e0757612e0661291f565b5b6000612e1584828501612ddc565b91505092915050565b600060208284031215612e3457612e3361291f565b5b6000612e4284828501612b75565b91505092915050565b60008060408385031215612e6257612e6161291f565b5b6000612e7085828601612b75565b9250506020612e8185828601612ddc565b9150509250929050565b600067ffffffffffffffff821115612ea657612ea5612c51565b5b612eaf82612a33565b9050602081019050919050565b6000612ecf612eca84612e8b565b612cb1565b905082815260208101848484011115612eeb57612eea612c4c565b5b612ef6848285612cfd565b509392505050565b600082601f830112612f1357612f12612c47565b5b8135612f23848260208601612ebc565b91505092915050565b60008060008060808587031215612f4657612f4561291f565b5b6000612f5487828801612b75565b9450506020612f6587828801612b75565b9350506040612f7687828801612ac0565b925050606085013567ffffffffffffffff811115612f9757612f96612924565b5b612fa387828801612efe565b91505092959194509250565b60008060408385031215612fc657612fc561291f565b5b6000612fd485828601612b75565b9250506020612fe585828601612b75565b9150509250929050565b7f4e487b7100000000000000000000000000000000000000000000000000000000600052602260045260246000fd5b6000600282049050600182168061303657607f821691505b6020821081141561304a57613049612fef565b5b50919050565b7f4c696d6974206d7573742062652067726561746572207468616e203000000000600082015250565b6000613086601c836129ef565b915061309182613050565b602082019050919050565b600060208201905081810360008301526130b581613079565b9050919050565b600081905092915050565b50565b60006130d76000836130bc565b91506130e2826130c7565b600082019050919050565b60006130f8826130ca565b9150819050919050565b7f4661696c656420746f2073656e64204574686572000000000000000000000000600082015250565b60006131386014836129ef565b915061314382613102565b602082019050919050565b600060208201905081810360008301526131678161312b565b9050919050565b7f5175616e74697479206d7573742062652067726561746572207468616e203000600082015250565b60006131a4601f836129ef565b91506131af8261316e565b602082019050919050565b600060208201905081810360008301526131d381613197565b9050919050565b7f50726573616c65206973206e6f74206163746976650000000000000000000000600082015250565b60006132106015836129ef565b915061321b826131da565b602082019050919050565b6000602082019050818103600083015261323f81613203565b9050919050565b7f4e487b7100000000000000000000000000000000000000000000000000000000600052601160045260246000fd5b600061328082612a9f565b915061328b83612a9f565b9250827fffffffffffffffffffffffffffffffffffffffffffffffffffffffffffffffff038211156132c0576132bf613246565b5b828201905092915050565b7f5472616e73666572206578636565647320746f74616c20737570706c792e0000600082015250565b6000613301601e836129ef565b915061330c826132cb565b602082019050919050565b60006020820190508181036000830152613330816132f4565b9050919050565b7f5472616e736665722065786365656473206d617820616d6f756e742e00000000600082015250565b600061336d601c836129ef565b915061337882613337565b602082019050919050565b6000602082019050818103600083015261339c81613360565b9050919050565b60006133ae82612a9f565b91506133b983612a9f565b9250817fffffffffffffffffffffffffffffffffffffffffffffffffffffffffffffffff04831182151516156133f2576133f1613246565b5b828202905092915050565b7f5072696365206e6f7420636f76657265642e0000000000000000000000000000600082015250565b60006134336012836129ef565b915061343e826133fd565b602082019050919050565b6000602082019050818103600083015261346281613426565b9050919050565b7f5072696365206d7573742062652067726561746572207468616e203000000000600082015250565b600061349f601c836129ef565b91506134aa82613469565b602082019050919050565b600060208201905081810360008301526134ce81613492565b9050919050565b7f455243373231415f5f496e697469616c697a61626c653a20636f6e747261637460008201527f20697320616c726561647920696e697469616c697a6564000000000000000000602082015250565b60006135316037836129ef565b915061353c826134d5565b604082019050919050565b6000602082019050818103600083015261356081613524565b9050919050565b7f496e697469616c697a61626c653a20636f6e747261637420697320616c72656160008201527f647920696e697469616c697a6564000000000000000000000000000000000000602082015250565b60006135c3602e836129ef565b91506135ce82613567565b604082019050919050565b600060208201905081810360008301526135f2816135b6565b9050919050565b6000819050919050565b600060ff82169050919050565b6000819050919050565b600061363561363061362b846135f9565b613610565b613603565b9050919050565b6136458161361a565b82525050565b6000602082019050613660600083018461363c565b92915050565b7f5075626c69632073616c65206973206e6f742061637469766500000000000000600082015250565b600061369c6019836129ef565b91506136a782613666565b602082019050919050565b600060208201905081810360008301526136cb8161368f565b9050919050565b600081905092915050565b60006136e8826129e4565b6136f281856136d2565b9350613702818560208601612a00565b80840191505092915050565b600061371a82856136dd565b915061372682846136dd565b91508190509392505050565b7f4f776e61626c653a206e6577206f776e657220697320746865207a65726f206160008201527f6464726573730000000000000000000000000000000000000000000000000000602082015250565b600061378e6026836129ef565b915061379982613732565b604082019050919050565b600060208201905081810360008301526137bd81613781565b9050919050565b7f4f776e61626c653a2063616c6c6572206973206e6f7420746865206f776e6572600082015250565b60006137fa6020836129ef565b9150613805826137c4565b602082019050919050565b60006020820190508181036000830152613829816137ed565b9050919050565b7f455243373231415f5f496e697469616c697a61626c653a20636f6e747261637460008201527f206973206e6f7420696e697469616c697a696e67000000000000000000000000602082015250565b600061388c6034836129ef565b915061389782613830565b604082019050919050565b600060208201905081810360008301526138bb8161387f565b9050919050565b7f496e697469616c697a61626c653a20636f6e7472616374206973206e6f74206960008201527f6e697469616c697a696e67000000000000000000000000000000000000000000602082015250565b600061391e602b836129ef565b9150613929826138c2565b604082019050919050565b6000602082019050818103600083015261394d81613911565b9050919050565b600081519050919050565b600082825260208201905092915050565b600061397b82613954565b613985818561395f565b9350613995818560208601612a00565b61399e81612a33565b840191505092915050565b60006080820190506139be6000830187612b34565b6139cb6020830186612b34565b6139d86040830185612bca565b81810360608301526139ea8184613970565b905095945050505050565b600081519050613a0481612955565b92915050565b600060208284031215613a2057613a1f61291f565b5b6000613a2e848285016139f5565b9150509291505056fea26469706673582212205f0ea16702cab50179443b9ddba1f52b1d0f10da808d5e4a895a6b9fab624c6064736f6c63430008090033",
  "linkReferences": {},
  "deployedLinkReferences": {}
}